{
  "contractName": "LendBorrowContract",
  "abi": [
    {
      "inputs": [],
      "stateMutability": "nonpayable",
      "type": "constructor"
    },
    {
      "anonymous": false,
      "inputs": [
        {
          "indexed": true,
          "internalType": "uint256",
          "name": "_lenderId",
          "type": "uint256"
        },
        {
          "indexed": true,
          "internalType": "address",
          "name": "_lender",
          "type": "address"
        },
        {
          "indexed": true,
          "internalType": "uint256",
          "name": "_amount",
          "type": "uint256"
        },
        {
          "indexed": false,
          "internalType": "uint256",
          "name": "_rateOfReturn",
          "type": "uint256"
        },
        {
          "indexed": false,
          "internalType": "uint256",
          "name": "_interestEarnedPerDay",
          "type": "uint256"
        },
        {
          "indexed": false,
          "internalType": "uint256",
          "name": "_lendingDurationInSecs",
          "type": "uint256"
        },
        {
          "indexed": false,
          "internalType": "uint256",
          "name": "_startTimeInSecs",
          "type": "uint256"
        }
      ],
      "name": "LogLenderCreation",
      "type": "event"
    },
    {
      "anonymous": false,
      "inputs": [
        {
          "indexed": true,
          "internalType": "uint256",
          "name": "_lenderId",
          "type": "uint256"
        },
        {
          "indexed": true,
          "internalType": "address",
          "name": "_lender",
          "type": "address"
        },
        {
          "indexed": true,
          "internalType": "uint256",
          "name": "_interestRedeemed",
          "type": "uint256"
        },
        {
          "indexed": false,
          "internalType": "uint256",
          "name": "_latestTimeOfInterestRedeemed",
          "type": "uint256"
        }
      ],
      "name": "LogLenderInterestRedemption",
      "type": "event"
    },
    {
      "anonymous": false,
      "inputs": [
        {
          "indexed": true,
          "internalType": "uint256",
          "name": "_lenderId",
          "type": "uint256"
        },
        {
          "indexed": true,
          "internalType": "address",
          "name": "_lender",
          "type": "address"
        },
        {
          "indexed": true,
          "internalType": "uint256",
          "name": "_lenderAmount",
          "type": "uint256"
        },
        {
          "indexed": false,
          "internalType": "uint256",
          "name": "_interestNotRedeemed",
          "type": "uint256"
        }
      ],
      "name": "LogLenderMatured",
      "type": "event"
    },
    {
      "anonymous": false,
      "inputs": [
        {
          "indexed": true,
          "internalType": "uint256",
          "name": "_liquidityAvailable",
          "type": "uint256"
        }
      ],
      "name": "LogLiquidityAvailable",
      "type": "event"
    },
    {
      "anonymous": false,
      "inputs": [
        {
          "indexed": true,
          "internalType": "uint256",
          "name": "_loanId",
          "type": "uint256"
        },
        {
          "indexed": true,
          "internalType": "address",
          "name": "_borrower",
          "type": "address"
        },
        {
          "indexed": false,
          "internalType": "uint256",
          "name": "_amount",
          "type": "uint256"
        },
        {
          "indexed": false,
          "internalType": "uint256",
          "name": "_interest",
          "type": "uint256"
        },
        {
          "indexed": false,
          "internalType": "uint256",
          "name": "_fullAmount",
          "type": "uint256"
        },
        {
          "indexed": false,
          "internalType": "uint256",
          "name": "_monthlyDepositAmount",
          "type": "uint256"
        },
        {
          "indexed": false,
          "internalType": "uint256",
          "name": "_monthlyInterest",
          "type": "uint256"
        },
        {
          "indexed": true,
          "internalType": "address",
          "name": "_nftContract",
          "type": "address"
        },
        {
          "indexed": false,
          "internalType": "uint256",
          "name": "_nftTokenId",
          "type": "uint256"
        }
      ],
      "name": "LogLoanCreation",
      "type": "event"
    },
    {
      "anonymous": false,
      "inputs": [
        {
          "indexed": true,
          "internalType": "uint256",
          "name": "_loanId",
          "type": "uint256"
        },
        {
          "indexed": true,
          "internalType": "address",
          "name": "_borrower",
          "type": "address"
        },
        {
          "indexed": false,
          "internalType": "uint256",
          "name": "_depositAmount",
          "type": "uint256"
        },
        {
          "indexed": false,
          "internalType": "uint256",
          "name": "_remainingAmount",
          "type": "uint256"
        }
      ],
      "name": "LogLoanDeposit",
      "type": "event"
    },
    {
      "anonymous": false,
      "inputs": [
        {
          "indexed": true,
          "internalType": "address",
          "name": "_borrower",
          "type": "address"
        },
        {
          "indexed": true,
          "internalType": "uint256",
          "name": "_loanId",
          "type": "uint256"
        },
        {
          "indexed": true,
          "internalType": "uint256",
          "name": "_depositAmount",
          "type": "uint256"
        },
        {
          "indexed": false,
          "internalType": "uint256",
          "name": "_remainingAmount",
          "type": "uint256"
        }
      ],
      "name": "LogLoanPaid",
      "type": "event"
    },
    {
      "anonymous": false,
      "inputs": [
        {
          "indexed": true,
          "internalType": "address",
          "name": "previousOwner",
          "type": "address"
        },
        {
          "indexed": true,
          "internalType": "address",
          "name": "newOwner",
          "type": "address"
        }
      ],
      "name": "OwnershipTransferred",
      "type": "event"
    },
    {
      "inputs": [
        {
          "internalType": "uint256",
          "name": "",
          "type": "uint256"
        }
      ],
      "name": "borrowingInterestRates",
      "outputs": [
        {
          "internalType": "uint256",
          "name": "",
          "type": "uint256"
        }
      ],
      "stateMutability": "view",
      "type": "function",
      "constant": true
    },
    {
      "inputs": [
        {
          "internalType": "uint256",
          "name": "",
          "type": "uint256"
        }
      ],
      "name": "lenders",
      "outputs": [
        {
          "internalType": "uint256",
          "name": "Id",
          "type": "uint256"
        },
        {
          "internalType": "address",
          "name": "lender",
          "type": "address"
        },
        {
          "internalType": "uint256",
          "name": "lendingAmount",
          "type": "uint256"
        },
        {
          "internalType": "uint256",
          "name": "rateOfReturn",
          "type": "uint256"
        },
        {
          "internalType": "uint256",
          "name": "interestEarnedPerDay",
          "type": "uint256"
        },
        {
          "internalType": "uint256",
          "name": "startTimeInSecs",
          "type": "uint256"
        },
        {
          "internalType": "uint256",
          "name": "durationInSecs",
          "type": "uint256"
        },
        {
          "internalType": "enum LendBorrowContract.LenderStatus",
          "name": "status",
          "type": "uint8"
        },
        {
          "internalType": "uint256",
          "name": "latestTimeOfInterestRedeemedInSecs",
          "type": "uint256"
        }
      ],
      "stateMutability": "view",
      "type": "function",
      "constant": true
    },
    {
      "inputs": [
        {
          "internalType": "uint256",
          "name": "",
          "type": "uint256"
        }
      ],
      "name": "lendingReturnRates",
      "outputs": [
        {
          "internalType": "uint256",
          "name": "",
          "type": "uint256"
        }
      ],
      "stateMutability": "view",
      "type": "function",
      "constant": true
    },
    {
      "inputs": [
        {
          "internalType": "uint256",
          "name": "",
          "type": "uint256"
        }
      ],
      "name": "loans",
      "outputs": [
        {
          "internalType": "uint256",
          "name": "Id",
          "type": "uint256"
        },
        {
          "internalType": "uint256",
          "name": "loanAmount",
          "type": "uint256"
        },
        {
          "internalType": "uint256",
          "name": "fullAmount",
          "type": "uint256"
        },
        {
          "internalType": "uint256",
          "name": "remainingAmount",
          "type": "uint256"
        },
        {
          "internalType": "uint256",
          "name": "interestAmountPerMonth",
          "type": "uint256"
        },
        {
          "internalType": "uint256",
          "name": "interest",
          "type": "uint256"
        },
        {
          "internalType": "address",
          "name": "borrower",
          "type": "address"
        },
        {
          "internalType": "enum LendBorrowContract.LoanStatus",
          "name": "status",
          "type": "uint8"
        },
        {
          "internalType": "uint256",
          "name": "creationTimeInSecs",
          "type": "uint256"
        },
        {
          "internalType": "uint256",
          "name": "durationInYears",
          "type": "uint256"
        },
        {
          "components": [
            {
              "internalType": "address",
              "name": "contractAddress",
              "type": "address"
            },
            {
              "internalType": "uint256",
              "name": "tokenId",
              "type": "uint256"
            }
          ],
          "internalType": "struct LendBorrowContract.Nft",
          "name": "nftInfo",
          "type": "tuple"
        },
        {
          "internalType": "uint256",
          "name": "monthlyDeposit",
          "type": "uint256"
        }
      ],
      "stateMutability": "view",
      "type": "function",
      "constant": true
    },
    {
      "inputs": [],
      "name": "owner",
      "outputs": [
        {
          "internalType": "address",
          "name": "",
          "type": "address"
        }
      ],
      "stateMutability": "view",
      "type": "function",
      "constant": true
    },
    {
      "inputs": [],
      "name": "renounceOwnership",
      "outputs": [],
      "stateMutability": "nonpayable",
      "type": "function"
    },
    {
      "inputs": [
        {
          "internalType": "address",
          "name": "newOwner",
          "type": "address"
        }
      ],
      "name": "transferOwnership",
      "outputs": [],
      "stateMutability": "nonpayable",
      "type": "function"
    },
    {
      "stateMutability": "payable",
      "type": "receive",
      "payable": true
    },
    {
      "inputs": [
        {
          "internalType": "address",
          "name": "_address",
          "type": "address"
        }
      ],
      "name": "getAccountType",
      "outputs": [
        {
          "internalType": "string",
          "name": "",
          "type": "string"
        }
      ],
      "stateMutability": "view",
      "type": "function",
      "constant": true
    },
    {
      "inputs": [],
      "name": "getLiquidityAvailable",
      "outputs": [
        {
          "internalType": "uint256",
          "name": "",
          "type": "uint256"
        }
      ],
      "stateMutability": "view",
      "type": "function",
      "constant": true
    },
    {
      "inputs": [],
      "name": "getAllLoaners",
      "outputs": [
        {
          "components": [
            {
              "internalType": "uint256",
              "name": "Id",
              "type": "uint256"
            },
            {
              "internalType": "uint256",
              "name": "loanAmount",
              "type": "uint256"
            },
            {
              "internalType": "uint256",
              "name": "fullAmount",
              "type": "uint256"
            },
            {
              "internalType": "uint256",
              "name": "remainingAmount",
              "type": "uint256"
            },
            {
              "internalType": "uint256",
              "name": "interestAmountPerMonth",
              "type": "uint256"
            },
            {
              "internalType": "uint256",
              "name": "interest",
              "type": "uint256"
            },
            {
              "internalType": "address",
              "name": "borrower",
              "type": "address"
            },
            {
              "internalType": "enum LendBorrowContract.LoanStatus",
              "name": "status",
              "type": "uint8"
            },
            {
              "internalType": "uint256",
              "name": "creationTimeInSecs",
              "type": "uint256"
            },
            {
              "internalType": "uint256",
              "name": "durationInYears",
              "type": "uint256"
            },
            {
              "components": [
                {
                  "internalType": "address",
                  "name": "contractAddress",
                  "type": "address"
                },
                {
                  "internalType": "uint256",
                  "name": "tokenId",
                  "type": "uint256"
                }
              ],
              "internalType": "struct LendBorrowContract.Nft",
              "name": "nftInfo",
              "type": "tuple"
            },
            {
              "internalType": "uint256",
              "name": "monthlyDeposit",
              "type": "uint256"
            }
          ],
          "internalType": "struct LendBorrowContract.Loan[]",
          "name": "",
          "type": "tuple[]"
        }
      ],
      "stateMutability": "view",
      "type": "function",
      "constant": true
    },
    {
      "inputs": [],
      "name": "getAllLenders",
      "outputs": [
        {
          "components": [
            {
              "internalType": "uint256",
              "name": "Id",
              "type": "uint256"
            },
            {
              "internalType": "address",
              "name": "lender",
              "type": "address"
            },
            {
              "internalType": "uint256",
              "name": "lendingAmount",
              "type": "uint256"
            },
            {
              "internalType": "uint256",
              "name": "rateOfReturn",
              "type": "uint256"
            },
            {
              "internalType": "uint256",
              "name": "interestEarnedPerDay",
              "type": "uint256"
            },
            {
              "internalType": "uint256",
              "name": "startTimeInSecs",
              "type": "uint256"
            },
            {
              "internalType": "uint256",
              "name": "durationInSecs",
              "type": "uint256"
            },
            {
              "internalType": "enum LendBorrowContract.LenderStatus",
              "name": "status",
              "type": "uint8"
            },
            {
              "internalType": "uint256",
              "name": "latestTimeOfInterestRedeemedInSecs",
              "type": "uint256"
            }
          ],
          "internalType": "struct LendBorrowContract.Lend[]",
          "name": "",
          "type": "tuple[]"
        }
      ],
      "stateMutability": "view",
      "type": "function",
      "constant": true
    },
    {
      "inputs": [],
      "name": "getUsersLoan",
      "outputs": [
        {
          "components": [
            {
              "internalType": "uint256",
              "name": "Id",
              "type": "uint256"
            },
            {
              "internalType": "uint256",
              "name": "loanAmount",
              "type": "uint256"
            },
            {
              "internalType": "uint256",
              "name": "fullAmount",
              "type": "uint256"
            },
            {
              "internalType": "uint256",
              "name": "remainingAmount",
              "type": "uint256"
            },
            {
              "internalType": "uint256",
              "name": "interestAmountPerMonth",
              "type": "uint256"
            },
            {
              "internalType": "uint256",
              "name": "interest",
              "type": "uint256"
            },
            {
              "internalType": "address",
              "name": "borrower",
              "type": "address"
            },
            {
              "internalType": "enum LendBorrowContract.LoanStatus",
              "name": "status",
              "type": "uint8"
            },
            {
              "internalType": "uint256",
              "name": "creationTimeInSecs",
              "type": "uint256"
            },
            {
              "internalType": "uint256",
              "name": "durationInYears",
              "type": "uint256"
            },
            {
              "components": [
                {
                  "internalType": "address",
                  "name": "contractAddress",
                  "type": "address"
                },
                {
                  "internalType": "uint256",
                  "name": "tokenId",
                  "type": "uint256"
                }
              ],
              "internalType": "struct LendBorrowContract.Nft",
              "name": "nftInfo",
              "type": "tuple"
            },
            {
              "internalType": "uint256",
              "name": "monthlyDeposit",
              "type": "uint256"
            }
          ],
          "internalType": "struct LendBorrowContract.Loan",
          "name": "",
          "type": "tuple"
        }
      ],
      "stateMutability": "view",
      "type": "function",
      "constant": true
    },
    {
      "inputs": [],
      "name": "getUsersLendings",
      "outputs": [
        {
          "components": [
            {
              "internalType": "uint256",
              "name": "Id",
              "type": "uint256"
            },
            {
              "internalType": "address",
              "name": "lender",
              "type": "address"
            },
            {
              "internalType": "uint256",
              "name": "lendingAmount",
              "type": "uint256"
            },
            {
              "internalType": "uint256",
              "name": "rateOfReturn",
              "type": "uint256"
            },
            {
              "internalType": "uint256",
              "name": "interestEarnedPerDay",
              "type": "uint256"
            },
            {
              "internalType": "uint256",
              "name": "startTimeInSecs",
              "type": "uint256"
            },
            {
              "internalType": "uint256",
              "name": "durationInSecs",
              "type": "uint256"
            },
            {
              "internalType": "enum LendBorrowContract.LenderStatus",
              "name": "status",
              "type": "uint8"
            },
            {
              "internalType": "uint256",
              "name": "latestTimeOfInterestRedeemedInSecs",
              "type": "uint256"
            }
          ],
          "internalType": "struct LendBorrowContract.Lend[]",
          "name": "",
          "type": "tuple[]"
        }
      ],
      "stateMutability": "view",
      "type": "function",
      "constant": true
    },
    {
      "inputs": [
        {
          "internalType": "uint256",
          "name": "_loanAmount",
          "type": "uint256"
        },
        {
          "internalType": "uint256",
          "name": "_loanDuration",
          "type": "uint256"
        },
        {
          "internalType": "address",
          "name": "_nftAddress",
          "type": "address"
        },
        {
          "internalType": "uint256",
          "name": "_nftTokenId",
          "type": "uint256"
        },
        {
          "internalType": "uint256",
          "name": "_nftFloorPrice",
          "type": "uint256"
        }
      ],
      "name": "createLoan",
      "outputs": [
        {
          "internalType": "uint256",
          "name": "",
          "type": "uint256"
        }
      ],
      "stateMutability": "payable",
      "type": "function",
      "payable": true
    },
    {
      "inputs": [
        {
          "internalType": "uint256",
          "name": "_loanId",
          "type": "uint256"
        }
      ],
      "name": "payCompleteLoan",
      "outputs": [],
      "stateMutability": "payable",
      "type": "function",
      "payable": true
    },
    {
      "inputs": [
        {
          "internalType": "uint256",
          "name": "_loanId",
          "type": "uint256"
        }
      ],
      "name": "payLoanMonthlyDeposit",
      "outputs": [],
      "stateMutability": "payable",
      "type": "function",
      "payable": true
    },
    {
      "inputs": [
        {
          "internalType": "uint256",
          "name": "_lendingDurationInYears",
          "type": "uint256"
        }
      ],
      "name": "createLender",
      "outputs": [
        {
          "internalType": "uint256",
          "name": "",
          "type": "uint256"
        }
      ],
      "stateMutability": "payable",
      "type": "function",
      "payable": true
    },
    {
      "inputs": [
        {
          "internalType": "uint256",
          "name": "_lenderId",
          "type": "uint256"
        }
      ],
      "name": "redeemLendersInterest",
      "outputs": [],
      "stateMutability": "payable",
      "type": "function",
      "payable": true
    },
    {
      "inputs": [
        {
          "internalType": "uint256",
          "name": "_lenderId",
          "type": "uint256"
        }
      ],
      "name": "retrieveLendersFund",
      "outputs": [],
      "stateMutability": "payable",
      "type": "function",
      "payable": true
    }
  ],
  "bytecode": "0x60806040523480156200001157600080fd5b506200003262000026620000ae60201b60201c565b620000b660201b60201c565b600180819055506000600481905550600a600560006001815260200190815260200160002081905550600b6005600060028152602001908152602001600020819055506005600660006001815260200190815260200160002081905550600680600060028152602001908152602001600020819055506200017a565b600033905090565b60008060009054906101000a900473ffffffffffffffffffffffffffffffffffffffff169050816000806101000a81548173ffffffffffffffffffffffffffffffffffffffff021916908373ffffffffffffffffffffffffffffffffffffffff1602179055508173ffffffffffffffffffffffffffffffffffffffff168173ffffffffffffffffffffffffffffffffffffffff167f8be0079c531659141344cd1fd0a4f28419497f9722a3daafe3b4186f6b6457e060405160405180910390a35050565b6150af806200018a6000396000f3fe6080604052600436106101185760003560e01c80638449cc0c116100a0578063a1666b5411610064578063a1666b5414610385578063aafc5a3c146103b0578063ae203146146103cc578063e1ec3c6814610409578063f2fde38b146104515761011f565b80638449cc0c1461029e57806388055fb3146102ce5780638da5cb5b146102ea578063929eea21146103155780639662e44c1461035a5761011f565b8063547706dd116100e7578063547706dd146101e257806368f17e11146101fe5780636d8b94e81461023b578063715018a61461026b5780637c69973c146102825761011f565b806306e7297914610124578063159d970b1461014f57806329eee7eb1461018c5780634696e5f3146101b75761011f565b3661011f57005b600080fd5b34801561013057600080fd5b5061013961047a565b604051610146919061391a565b60405180910390f35b34801561015b57600080fd5b506101766004803603810190610171919061396d565b610639565b60405161018391906139a9565b60405180910390f35b34801561019857600080fd5b506101a1610651565b6040516101ae9190613b73565b60405180910390f35b3480156101c357600080fd5b506101cc610938565b6040516101d991906139a9565b60405180910390f35b6101fc60048036038101906101f7919061396d565b610942565b005b34801561020a57600080fd5b506102256004803603810190610220919061396d565b610dda565b60405161023291906139a9565b60405180910390f35b6102556004803603810190610250919061396d565b610df2565b60405161026291906139a9565b60405180910390f35b34801561027757600080fd5b50610280611291565b005b61029c6004803603810190610297919061396d565b6112a5565b005b6102b860048036038101906102b39190613bc1565b611718565b6040516102c591906139a9565b60405180910390f35b6102e860048036038101906102e3919061396d565b611e44565b005b3480156102f657600080fd5b506102ff61239b565b60405161030c9190613c4b565b60405180910390f35b34801561032157600080fd5b5061033c6004803603810190610337919061396d565b6123c4565b60405161035199989796959493929190613c75565b60405180910390f35b34801561036657600080fd5b5061036f61244f565b60405161037c9190613df8565b60405180910390f35b34801561039157600080fd5b5061039a612696565b6040516103a79190613b73565b60405180910390f35b6103ca60048036038101906103c5919061396d565b6127cd565b005b3480156103d857600080fd5b506103f360048036038101906103ee9190613e14565b612ccd565b6040516104009190613ed1565b60405180910390f35b34801561041557600080fd5b50610430600480360381019061042b919061396d565b612f87565b6040516104489c9b9a99989796959493929190613f31565b60405180910390f35b34801561045d57600080fd5b5061047860048036038101906104739190613e14565b61308e565b005b60606002805480602002602001604051908101604052809291908181526020016000905b8282101561063057838290600052602060002090600c0201604051806101800160405290816000820154815260200160018201548152602001600282015481526020016003820154815260200160048201548152602001600582015481526020016006820160009054906101000a900473ffffffffffffffffffffffffffffffffffffffff1673ffffffffffffffffffffffffffffffffffffffff1673ffffffffffffffffffffffffffffffffffffffff1681526020016006820160149054906101000a900460ff166001811115610579576105786136fa565b5b600181111561058b5761058a6136fa565b5b81526020016007820154815260200160088201548152602001600982016040518060400160405290816000820160009054906101000a900473ffffffffffffffffffffffffffffffffffffffff1673ffffffffffffffffffffffffffffffffffffffff1673ffffffffffffffffffffffffffffffffffffffff1681526020016001820154815250508152602001600b820154815250508152602001906001019061049e565b50505050905090565b60066020528060005260406000206000915090505481565b6060600060038054905067ffffffffffffffff81111561067457610673613feb565b5b6040519080825280602002602001820160405280156106ad57816020015b61069a613541565b8152602001906001900390816106925790505b5090506000805b60038054905081101561087e573373ffffffffffffffffffffffffffffffffffffffff16600382815481106106ec576106eb61401a565b5b906000526020600020906009020160010160009054906101000a900473ffffffffffffffffffffffffffffffffffffffff1673ffffffffffffffffffffffffffffffffffffffff160361086b576003818154811061074d5761074c61401a565b5b906000526020600020906009020160405180610120016040529081600082015481526020016001820160009054906101000a900473ffffffffffffffffffffffffffffffffffffffff1673ffffffffffffffffffffffffffffffffffffffff1673ffffffffffffffffffffffffffffffffffffffff16815260200160028201548152602001600382015481526020016004820154815260200160058201548152602001600682015481526020016007820160009054906101000a900460ff16600181111561081e5761081d6136fa565b5b60018111156108305761082f6136fa565b5b81526020016008820154815250508383815181106108515761085061401a565b5b6020026020010181905250818061086790614078565b9250505b808061087690614078565b9150506106b4565b5060008167ffffffffffffffff81111561089b5761089a613feb565b5b6040519080825280602002602001820160405280156108d457816020015b6108c1613541565b8152602001906001900390816108b95790505b50905060005b8281101561092e578381815181106108f5576108f461401a565b5b60200260200101518282815181106109105761090f61401a565b5b6020026020010181905250808061092690614078565b9150506108da565b5080935050505090565b6000600454905090565b600281815481106109565761095561401a565b5b90600052602060002090600c020160060160009054906101000a900473ffffffffffffffffffffffffffffffffffffffff1673ffffffffffffffffffffffffffffffffffffffff163373ffffffffffffffffffffffffffffffffffffffff16146109f5576040517f08c379a00000000000000000000000000000000000000000000000000000000081526004016109ec90614132565b60405180910390fd5b60028181548110610a0957610a0861401a565b5b90600052602060002090600c0201600301543414610a5c576040517f08c379a0000000000000000000000000000000000000000000000000000000008152600401610a53906141c4565b60405180910390fd5b60006001811115610a7057610a6f6136fa565b5b60028281548110610a8457610a8361401a565b5b90600052602060002090600c020160060160149054906101000a900460ff166001811115610ab557610ab46136fa565b5b14610af5576040517f08c379a0000000000000000000000000000000000000000000000000000000008152600401610aec90614230565b60405180910390fd5b60003073ffffffffffffffffffffffffffffffffffffffff1634604051610b1b90614281565b60006040518083038185875af1925050503d8060008114610b58576040519150601f19603f3d011682016040523d82523d6000602084013e610b5d565b606091505b5050905080610ba1576040517f08c379a0000000000000000000000000000000000000000000000000000000008152600401610b98906142e2565b60405180910390fd5b60028281548110610bb557610bb461401a565b5b90600052602060002090600c020160090160000160009054906101000a900473ffffffffffffffffffffffffffffffffffffffff1673ffffffffffffffffffffffffffffffffffffffff166323b872dd303360028681548110610c1b57610c1a61401a565b5b90600052602060002090600c0201600901600101546040518463ffffffff1660e01b8152600401610c4e93929190614302565b600060405180830381600087803b158015610c6857600080fd5b505af1158015610c7c573d6000803e3d6000fd5b50505050600160028381548110610c9657610c9561401a565b5b90600052602060002090600c020160060160146101000a81548160ff02191690836001811115610cc957610cc86136fa565b5b0217905550600060028381548110610ce457610ce361401a565b5b90600052602060002090600c02016003018190555060028281548110610d0d57610d0c61401a565b5b90600052602060002090600c020160010154600454610d2c9190614339565b60048190555034823373ffffffffffffffffffffffffffffffffffffffff167f65d6ad82ff9abb27c70147ab3919dd5ae6bf4d541ea2ba245afe7b554aeefc3660028681548110610d8057610d7f61401a565b5b90600052602060002090600c020160030154604051610d9f91906139a9565b60405180910390a46004547fa050751736fed002d83abc87e07f97401bf301145e7f4eb2e2718ab10a6d5d3c60405160405180910390a25050565b60056020528060005260406000206000915090505481565b6000803411610e36576040517f08c379a0000000000000000000000000000000000000000000000000000000008152600401610e2d906143df565b60405180910390fd5b604051602001610e4590614456565b60405160208183030381529060405280519060200120610e6433612ccd565b604051602001610e74919061449c565b6040516020818303038152906040528051906020012003610eca576040517f08c379a0000000000000000000000000000000000000000000000000000000008152600401610ec19061454b565b60405180910390fd5b60006003805490509050600060066000858152602001908152602001600020549050600060648234610efc919061456b565b610f0691906145f4565b90506000610f148287613111565b905060003073ffffffffffffffffffffffffffffffffffffffff1634604051610f3c90614281565b60006040518083038185875af1925050503d8060008114610f79576040519150601f19603f3d011682016040523d82523d6000602084013e610f7e565b606091505b505090506000603c80601861016d8b610f97919061456b565b610fa1919061456b565b610fab919061456b565b610fb5919061456b565b905081610ff7576040517f08c379a0000000000000000000000000000000000000000000000000000000008152600401610fee906142e2565b60405180910390fd5b60036040518061012001604052808881526020013373ffffffffffffffffffffffffffffffffffffffff16815260200134815260200187815260200185815260200142815260200183815260200160006001811115611059576110586136fa565b5b81526020014281525090806001815401808255809150506001900390600052602060002090600902016000909190919091506000820151816000015560208201518160010160006101000a81548173ffffffffffffffffffffffffffffffffffffffff021916908373ffffffffffffffffffffffffffffffffffffffff16021790555060408201518160020155606082015181600301556080820151816004015560a0820151816005015560c0820151816006015560e08201518160070160006101000a81548160ff02191690836001811115611139576111386136fa565b5b02179055506101008201518160080155505083346111579190614625565b6004546111649190614339565b600481905550343373ffffffffffffffffffffffffffffffffffffffff16877f1f2634d93613be6e3bb0ab1fd8adac3d5a4cf849d3a08560becd32e82ac8d0b860038a815481106111b8576111b761401a565b5b90600052602060002090600902016003015460038b815481106111de576111dd61401a565b5b90600052602060002090600902016004015460038c815481106112045761120361401a565b5b90600052602060002090600902016006015460038d8154811061122a5761122961401a565b5b90600052602060002090600902016005015460405161124c9493929190614659565b60405180910390a46004547fa050751736fed002d83abc87e07f97401bf301145e7f4eb2e2718ab10a6d5d3c60405160405180910390a2859650505050505050919050565b611299613134565b6112a360006131b2565b565b6002600154036112ea576040517f08c379a00000000000000000000000000000000000000000000000000000000081526004016112e1906146ea565b60405180910390fd5b6002600181905550600381815481106113065761130561401a565b5b906000526020600020906009020160010160009054906101000a900473ffffffffffffffffffffffffffffffffffffffff1673ffffffffffffffffffffffffffffffffffffffff163373ffffffffffffffffffffffffffffffffffffffff16146113a5576040517f08c379a000000000000000000000000000000000000000000000000000000000815260040161139c90614756565b60405180910390fd5b42600382815481106113ba576113b961401a565b5b906000526020600020906009020160050154600383815481106113e0576113df61401a565b5b9060005260206000209060090201600601546113fc9190614339565b101561143d576040517f08c379a00000000000000000000000000000000000000000000000000000000081526004016114349061480e565b60405180910390fd5b600062015180600383815481106114575761145661401a565b5b906000526020600020906009020160080154426114749190614625565b61147e91906145f4565b905060018110156114c4576040517f08c379a00000000000000000000000000000000000000000000000000000000081526004016114bb906148a0565b60405180910390fd5b600081600384815481106114db576114da61401a565b5b9060005260206000209060090201600401546114f7919061456b565b9050603c80601884611509919061456b565b611513919061456b565b61151d919061456b565b600384815481106115315761153061401a565b5b90600052602060002090600902016008015461154d9190614339565b600384815481106115615761156061401a565b5b90600052602060002090600902016008018190555060003373ffffffffffffffffffffffffffffffffffffffff168260405161159c90614281565b60006040518083038185875af1925050503d80600081146115d9576040519150601f19603f3d011682016040523d82523d6000602084013e6115de565b606091505b5050905080611622576040517f08c379a0000000000000000000000000000000000000000000000000000000008152600401611619906142e2565b60405180910390fd5b81600385815481106116375761163661401a565b5b906000526020600020906009020160010160009054906101000a900473ffffffffffffffffffffffffffffffffffffffff1673ffffffffffffffffffffffffffffffffffffffff16857f5ccbe759e2154705f56638a6d44d4ef7bd3bac0fbb9855bda3f8be485ddb3645600388815481106116b5576116b461401a565b5b9060005260206000209060090201600801546040516116d491906139a9565b60405180910390a46004547fa050751736fed002d83abc87e07f97401bf301145e7f4eb2e2718ab10a6d5d3c60405160405180910390a25050506001808190555050565b600060026001540361175f576040517f08c379a0000000000000000000000000000000000000000000000000000000008152600401611756906146ea565b60405180910390fd5b60026001819055503373ffffffffffffffffffffffffffffffffffffffff168473ffffffffffffffffffffffffffffffffffffffff16636352211e856040518263ffffffff1660e01b81526004016117b791906139a9565b602060405180830381865afa1580156117d4573d6000803e3d6000fd5b505050506040513d601f19601f820116820180604052508101906117f891906148d5565b73ffffffffffffffffffffffffffffffffffffffff161461184e576040517f08c379a00000000000000000000000000000000000000000000000000000000081526004016118459061494e565b60405180910390fd5b81861115611891576040517f08c379a000000000000000000000000000000000000000000000000000000000815260040161188890614a06565b60405180910390fd5b6004548611156118d6576040517f08c379a00000000000000000000000000000000000000000000000000000000081526004016118cd90614abe565b60405180910390fd5b60006118e133612ccd565b90506040516020016118f290614456565b6040516020818303038152906040528051906020012081604051602001611919919061449c565b604051602081830303815290604052805190602001200361196f576040517f08c379a000000000000000000000000000000000000000000000000000000000815260040161196690614b76565b60405180910390fd5b60405160200161197e90614be2565b60405160208183030381529060405280519060200120816040516020016119a5919061449c565b60405160208183030381529060405280519060200120036119fb576040517f08c379a00000000000000000000000000000000000000000000000000000000081526004016119f29061454b565b60405180910390fd5b3073ffffffffffffffffffffffffffffffffffffffff168573ffffffffffffffffffffffffffffffffffffffff1663081812fc866040518263ffffffff1660e01b8152600401611a4b91906139a9565b602060405180830381865afa158015611a68573d6000803e3d6000fd5b505050506040513d601f19601f82011682018060405250810190611a8c91906148d5565b73ffffffffffffffffffffffffffffffffffffffff1614611ae2576040517f08c379a0000000000000000000000000000000000000000000000000000000008152600401611ad990614c69565b60405180910390fd5b8473ffffffffffffffffffffffffffffffffffffffff166323b872dd3330876040518463ffffffff1660e01b8152600401611b1f93929190614302565b600060405180830381600087803b158015611b3957600080fd5b505af1158015611b4d573d6000803e3d6000fd5b5050505086600454611b5f9190614625565b60048190555060003373ffffffffffffffffffffffffffffffffffffffff1688604051611b8b90614281565b60006040518083038185875af1925050503d8060008114611bc8576040519150601f19603f3d011682016040523d82523d6000602084013e611bcd565b606091505b5050905080611c11576040517f08c379a0000000000000000000000000000000000000000000000000000000008152600401611c08906142e2565b60405180910390fd5b6000611c1f89898989613276565b905060028181548110611c3557611c3461401a565b5b90600052602060002090600c020160090160000160009054906101000a900473ffffffffffffffffffffffffffffffffffffffff1673ffffffffffffffffffffffffffffffffffffffff1660028281548110611c9457611c9361401a565b5b90600052602060002090600c020160060160009054906101000a900473ffffffffffffffffffffffffffffffffffffffff1673ffffffffffffffffffffffffffffffffffffffff16827f58370ce1e111cef197325eb5ad6343fa3acad99982c5c7bc9719c8d89d0b82c960028581548110611d1257611d1161401a565b5b90600052602060002090600c02016001015460028681548110611d3857611d3761401a565b5b90600052602060002090600c02016005015460028781548110611d5e57611d5d61401a565b5b90600052602060002090600c02016002015460028881548110611d8457611d8361401a565b5b90600052602060002090600c0201600b015460028981548110611daa57611da961401a565b5b90600052602060002090600c02016004015460028a81548110611dd057611dcf61401a565b5b90600052602060002090600c020160090160010154604051611df796959493929190614c89565b60405180910390a46004547fa050751736fed002d83abc87e07f97401bf301145e7f4eb2e2718ab10a6d5d3c60405160405180910390a28093505050506001808190555095945050505050565b600260015403611e89576040517f08c379a0000000000000000000000000000000000000000000000000000000008152600401611e80906146ea565b60405180910390fd5b600260018190555060038181548110611ea557611ea461401a565b5b906000526020600020906009020160010160009054906101000a900473ffffffffffffffffffffffffffffffffffffffff1673ffffffffffffffffffffffffffffffffffffffff163373ffffffffffffffffffffffffffffffffffffffff1614611f44576040517f08c379a0000000000000000000000000000000000000000000000000000000008152600401611f3b90614756565b60405180910390fd5b60006001811115611f5857611f576136fa565b5b60038281548110611f6c57611f6b61401a565b5b906000526020600020906009020160070160009054906101000a900460ff166001811115611f9d57611f9c6136fa565b5b14611fdd576040517f08c379a0000000000000000000000000000000000000000000000000000000008152600401611fd490614d36565b60405180910390fd5b4260038281548110611ff257611ff161401a565b5b906000526020600020906009020160050154600383815481106120185761201761401a565b5b9060005260206000209060090201600601546120349190614339565b1115612075576040517f08c379a000000000000000000000000000000000000000000000000000000000815260040161206c90614da2565b60405180910390fd5b6000620151806003838154811061208f5761208e61401a565b5b906000526020600020906009020160050154600384815481106120b5576120b461401a565b5b9060005260206000209060090201600801546120d19190614625565b600384815481106120e5576120e461401a565b5b9060005260206000209060090201600601546121019190614625565b61210b91906145f4565b6003838154811061211f5761211e61401a565b5b90600052602060002090600902016004015461213b919061456b565b90506001600383815481106121535761215261401a565b5b906000526020600020906009020160070160006101000a81548160ff02191690836001811115612186576121856136fa565b5b02179055506003828154811061219f5761219e61401a565b5b9060005260206000209060090201600201546004546121be9190614625565b6004819055506000600383815481106121da576121d961401a565b5b906000526020600020906009020160020154826121f79190614339565b905060003373ffffffffffffffffffffffffffffffffffffffff168260405161221f90614281565b60006040518083038185875af1925050503d806000811461225c576040519150601f19603f3d011682016040523d82523d6000602084013e612261565b606091505b50509050806122a5576040517f08c379a000000000000000000000000000000000000000000000000000000000815260040161229c906142e2565b60405180910390fd5b6004547fa050751736fed002d83abc87e07f97401bf301145e7f4eb2e2718ab10a6d5d3c60405160405180910390a2600384815481106122e8576122e761401a565b5b9060005260206000209060090201600201546003858154811061230e5761230d61401a565b5b906000526020600020906009020160010160009054906101000a900473ffffffffffffffffffffffffffffffffffffffff1673ffffffffffffffffffffffffffffffffffffffff16857ffa0d48c9476cd063510b6da30920a2e669e07841b4ed6a81096f5155d991ee188660405161238691906139a9565b60405180910390a45050506001808190555050565b60008060009054906101000a900473ffffffffffffffffffffffffffffffffffffffff16905090565b600381815481106123d457600080fd5b90600052602060002090600902016000915090508060000154908060010160009054906101000a900473ffffffffffffffffffffffffffffffffffffffff16908060020154908060030154908060040154908060050154908060060154908060070160009054906101000a900460ff16908060080154905089565b6124576135b5565b61245f6135b5565b60005b60028054905081101561268e573373ffffffffffffffffffffffffffffffffffffffff166002828154811061249a5761249961401a565b5b90600052602060002090600c020160060160009054906101000a900473ffffffffffffffffffffffffffffffffffffffff1673ffffffffffffffffffffffffffffffffffffffff160361267b57600281815481106124fb576124fa61401a565b5b90600052602060002090600c0201604051806101800160405290816000820154815260200160018201548152602001600282015481526020016003820154815260200160048201548152602001600582015481526020016006820160009054906101000a900473ffffffffffffffffffffffffffffffffffffffff1673ffffffffffffffffffffffffffffffffffffffff1673ffffffffffffffffffffffffffffffffffffffff1681526020016006820160149054906101000a900460ff1660018111156125cc576125cb6136fa565b5b60018111156125de576125dd6136fa565b5b81526020016007820154815260200160088201548152602001600982016040518060400160405290816000820160009054906101000a900473ffffffffffffffffffffffffffffffffffffffff1673ffffffffffffffffffffffffffffffffffffffff1673ffffffffffffffffffffffffffffffffffffffff1681526020016001820154815250508152602001600b82015481525050915061268e565b808061268690614078565b915050612462565b508091505090565b60606003805480602002602001604051908101604052809291908181526020016000905b828210156127c4578382906000526020600020906009020160405180610120016040529081600082015481526020016001820160009054906101000a900473ffffffffffffffffffffffffffffffffffffffff1673ffffffffffffffffffffffffffffffffffffffff1673ffffffffffffffffffffffffffffffffffffffff16815260200160028201548152602001600382015481526020016004820154815260200160058201548152602001600682015481526020016007820160009054906101000a900460ff166001811115612795576127946136fa565b5b60018111156127a7576127a66136fa565b5b8152602001600882015481525050815260200190600101906126ba565b50505050905090565b600060018111156127e1576127e06136fa565b5b600282815481106127f5576127f461401a565b5b90600052602060002090600c020160060160149054906101000a900460ff166001811115612826576128256136fa565b5b14612866576040517f08c379a000000000000000000000000000000000000000000000000000000000815260040161285d90614e0e565b60405180910390fd5b6002818154811061287a5761287961401a565b5b90600052602060002090600c0201600b01543410156128ce576040517f08c379a00000000000000000000000000000000000000000000000000000000081526004016128c590614ea0565b60405180910390fd5b600281815481106128e2576128e161401a565b5b90600052602060002090600c020160020154341115612936576040517f08c379a000000000000000000000000000000000000000000000000000000000815260040161292d90614f32565b60405180910390fd5b6002818154811061294a5761294961401a565b5b90600052602060002090600c020160060160009054906101000a900473ffffffffffffffffffffffffffffffffffffffff1673ffffffffffffffffffffffffffffffffffffffff163373ffffffffffffffffffffffffffffffffffffffff16146129e9576040517f08c379a00000000000000000000000000000000000000000000000000000000081526004016129e090614132565b60405180910390fd5b60003073ffffffffffffffffffffffffffffffffffffffff1634604051612a0f90614281565b60006040518083038185875af1925050503d8060008114612a4c576040519150601f19603f3d011682016040523d82523d6000602084013e612a51565b606091505b5050905080612a95576040517f08c379a0000000000000000000000000000000000000000000000000000000008152600401612a8c906142e2565b60405180910390fd5b3460028381548110612aaa57612aa961401a565b5b90600052602060002090600c020160030154612ac69190614625565b60028381548110612ada57612ad961401a565b5b90600052602060002090600c0201600301819055503373ffffffffffffffffffffffffffffffffffffffff16827f5c1df0303f45203f3c43f22c0e3c511ab6617363bb7c6bacd2bd23b8a81707a03460028681548110612b3d57612b3c61401a565b5b90600052602060002090600c020160030154604051612b5d929190614f52565b60405180910390a3600060028381548110612b7b57612b7a61401a565b5b90600052602060002090600c02016003015403612c5657600160028381548110612ba857612ba761401a565b5b90600052602060002090600c020160060160146101000a81548160ff02191690836001811115612bdb57612bda6136fa565b5b021790555034823373ffffffffffffffffffffffffffffffffffffffff167f65d6ad82ff9abb27c70147ab3919dd5ae6bf4d541ea2ba245afe7b554aeefc3660028681548110612c2e57612c2d61401a565b5b90600052602060002090600c020160030154604051612c4d91906139a9565b60405180910390a45b60028281548110612c6a57612c6961401a565b5b90600052602060002090600c02016004015434612c879190614625565b600454612c949190614339565b6004819055506004547fa050751736fed002d83abc87e07f97401bf301145e7f4eb2e2718ab10a6d5d3c60405160405180910390a25050565b606060005b600280549050811015612e0b578273ffffffffffffffffffffffffffffffffffffffff1660028281548110612d0a57612d0961401a565b5b90600052602060002090600c020160060160009054906101000a900473ffffffffffffffffffffffffffffffffffffffff1673ffffffffffffffffffffffffffffffffffffffff16148015612db5575060006001811115612d6e57612d6d6136fa565b5b60028281548110612d8257612d8161401a565b5b90600052602060002090600c020160060160149054906101000a900460ff166001811115612db357612db26136fa565b5b145b15612df8576040518060400160405280600881526020017f626f72726f776572000000000000000000000000000000000000000000000000815250915050612f82565b8080612e0390614078565b915050612cd2565b5060005b600380549050811015612f48578273ffffffffffffffffffffffffffffffffffffffff1660038281548110612e4757612e4661401a565b5b906000526020600020906009020160010160009054906101000a900473ffffffffffffffffffffffffffffffffffffffff1673ffffffffffffffffffffffffffffffffffffffff16148015612ef2575060006001811115612eab57612eaa6136fa565b5b60038281548110612ebf57612ebe61401a565b5b906000526020600020906009020160070160009054906101000a900460ff166001811115612ef057612eef6136fa565b5b145b15612f35576040518060400160405280600681526020017f6c656e6465720000000000000000000000000000000000000000000000000000815250915050612f82565b8080612f4090614078565b915050612e0f565b506040518060400160405280600881526020017f496e41637469766500000000000000000000000000000000000000000000000081525090505b919050565b60028181548110612f9757600080fd5b90600052602060002090600c02016000915090508060000154908060010154908060020154908060030154908060040154908060050154908060060160009054906101000a900473ffffffffffffffffffffffffffffffffffffffff16908060060160149054906101000a900460ff1690806007015490806008015490806009016040518060400160405290816000820160009054906101000a900473ffffffffffffffffffffffffffffffffffffffff1673ffffffffffffffffffffffffffffffffffffffff1673ffffffffffffffffffffffffffffffffffffffff1681526020016001820154815250509080600b015490508c565b613096613134565b600073ffffffffffffffffffffffffffffffffffffffff168173ffffffffffffffffffffffffffffffffffffffff1603613105576040517f08c379a00000000000000000000000000000000000000000000000000000000081526004016130fc90614fed565b60405180910390fd5b61310e816131b2565b50565b60008161016d613121919061456b565b8361312c91906145f4565b905092915050565b61313c613501565b73ffffffffffffffffffffffffffffffffffffffff1661315a61239b565b73ffffffffffffffffffffffffffffffffffffffff16146131b0576040517f08c379a00000000000000000000000000000000000000000000000000000000081526004016131a790615059565b60405180910390fd5b565b60008060009054906101000a900473ffffffffffffffffffffffffffffffffffffffff169050816000806101000a81548173ffffffffffffffffffffffffffffffffffffffff021916908373ffffffffffffffffffffffffffffffffffffffff1602179055508173ffffffffffffffffffffffffffffffffffffffff168173ffffffffffffffffffffffffffffffffffffffff167f8be0079c531659141344cd1fd0a4f28419497f9722a3daafe3b4186f6b6457e060405160405180910390a35050565b600080600280549050905060006005600087815260200190815260200160002054905060006132a58883613509565b90506000600c886132b6919061456b565b826132c191906145f4565b90506000828a6132d19190614339565b905060006132eb82600c8c6132e6919061456b565b61352b565b905060026040518061018001604052808881526020018d81526020018481526020018481526020018581526020018781526020013373ffffffffffffffffffffffffffffffffffffffff1681526020016000600181111561334f5761334e6136fa565b5b81526020014281526020018c815260200160405180604001604052808d73ffffffffffffffffffffffffffffffffffffffff1681526020018c81525081526020018381525090806001815401808255809150506001900390600052602060002090600c0201600090919091909150600082015181600001556020820151816001015560408201518160020155606082015181600301556080820151816004015560a0820151816005015560c08201518160060160006101000a81548173ffffffffffffffffffffffffffffffffffffffff021916908373ffffffffffffffffffffffffffffffffffffffff16021790555060e08201518160060160146101000a81548160ff0219169083600181111561346b5761346a6136fa565b5b0217905550610100820151816007015561012082015181600801556101408201518160090160008201518160000160006101000a81548173ffffffffffffffffffffffffffffffffffffffff021916908373ffffffffffffffffffffffffffffffffffffffff16021790555060208201518160010155505061016082015181600b01555050859650505050505050949350505050565b600033905090565b600060648284613519919061456b565b61352391906145f4565b905092915050565b6000818361353991906145f4565b905092915050565b60405180610120016040528060008152602001600073ffffffffffffffffffffffffffffffffffffffff1681526020016000815260200160008152602001600081526020016000815260200160008152602001600060018111156135a8576135a76136fa565b5b8152602001600081525090565b604051806101800160405280600081526020016000815260200160008152602001600081526020016000815260200160008152602001600073ffffffffffffffffffffffffffffffffffffffff1681526020016000600181111561361c5761361b6136fa565b5b81526020016000815260200160008152602001613637613644565b8152602001600081525090565b6040518060400160405280600073ffffffffffffffffffffffffffffffffffffffff168152602001600081525090565b600081519050919050565b600082825260208201905092915050565b6000819050602082019050919050565b6000819050919050565b6136b3816136a0565b82525050565b600073ffffffffffffffffffffffffffffffffffffffff82169050919050565b60006136e4826136b9565b9050919050565b6136f4816136d9565b82525050565b7f4e487b7100000000000000000000000000000000000000000000000000000000600052602160045260246000fd5b6002811061373a576137396136fa565b5b50565b600081905061374b82613729565b919050565b600061375b8261373d565b9050919050565b61376b81613750565b82525050565b60408201600082015161378760008501826136eb565b50602082015161379a60208501826136aa565b50505050565b6101a0820160008201516137b760008501826136aa565b5060208201516137ca60208501826136aa565b5060408201516137dd60408501826136aa565b5060608201516137f060608501826136aa565b50608082015161380360808501826136aa565b5060a082015161381660a08501826136aa565b5060c082015161382960c08501826136eb565b5060e082015161383c60e0850182613762565b506101008201516138516101008501826136aa565b506101208201516138666101208501826136aa565b5061014082015161387b610140850182613771565b506101608201516138906101808501826136aa565b50505050565b60006138a283836137a0565b6101a08301905092915050565b6000602082019050919050565b60006138c782613674565b6138d1818561367f565b93506138dc83613690565b8060005b8381101561390d5781516138f48882613896565b97506138ff836138af565b9250506001810190506138e0565b5085935050505092915050565b6000602082019050818103600083015261393481846138bc565b905092915050565b600080fd5b61394a816136a0565b811461395557600080fd5b50565b60008135905061396781613941565b92915050565b6000602082840312156139835761398261393c565b5b600061399184828501613958565b91505092915050565b6139a3816136a0565b82525050565b60006020820190506139be600083018461399a565b92915050565b600081519050919050565b600082825260208201905092915050565b6000819050602082019050919050565b60028110613a0157613a006136fa565b5b50565b6000819050613a12826139f0565b919050565b6000613a2282613a04565b9050919050565b613a3281613a17565b82525050565b61012082016000820151613a4f60008501826136aa565b506020820151613a6260208501826136eb565b506040820151613a7560408501826136aa565b506060820151613a8860608501826136aa565b506080820151613a9b60808501826136aa565b5060a0820151613aae60a08501826136aa565b5060c0820151613ac160c08501826136aa565b5060e0820151613ad460e0850182613a29565b50610100820151613ae96101008501826136aa565b50505050565b6000613afb8383613a38565b6101208301905092915050565b6000602082019050919050565b6000613b20826139c4565b613b2a81856139cf565b9350613b35836139e0565b8060005b83811015613b66578151613b4d8882613aef565b9750613b5883613b08565b925050600181019050613b39565b5085935050505092915050565b60006020820190508181036000830152613b8d8184613b15565b905092915050565b613b9e816136d9565b8114613ba957600080fd5b50565b600081359050613bbb81613b95565b92915050565b600080600080600060a08688031215613bdd57613bdc61393c565b5b6000613beb88828901613958565b9550506020613bfc88828901613958565b9450506040613c0d88828901613bac565b9350506060613c1e88828901613958565b9250506080613c2f88828901613958565b9150509295509295909350565b613c45816136d9565b82525050565b6000602082019050613c606000830184613c3c565b92915050565b613c6f81613a17565b82525050565b600061012082019050613c8b600083018c61399a565b613c98602083018b613c3c565b613ca5604083018a61399a565b613cb2606083018961399a565b613cbf608083018861399a565b613ccc60a083018761399a565b613cd960c083018661399a565b613ce660e0830185613c66565b613cf461010083018461399a565b9a9950505050505050505050565b6101a082016000820151613d1960008501826136aa565b506020820151613d2c60208501826136aa565b506040820151613d3f60408501826136aa565b506060820151613d5260608501826136aa565b506080820151613d6560808501826136aa565b5060a0820151613d7860a08501826136aa565b5060c0820151613d8b60c08501826136eb565b5060e0820151613d9e60e0850182613762565b50610100820151613db36101008501826136aa565b50610120820151613dc86101208501826136aa565b50610140820151613ddd610140850182613771565b50610160820151613df26101808501826136aa565b50505050565b60006101a082019050613e0e6000830184613d02565b92915050565b600060208284031215613e2a57613e2961393c565b5b6000613e3884828501613bac565b91505092915050565b600081519050919050565b600082825260208201905092915050565b60005b83811015613e7b578082015181840152602081019050613e60565b60008484015250505050565b6000601f19601f8301169050919050565b6000613ea382613e41565b613ead8185613e4c565b9350613ebd818560208601613e5d565b613ec681613e87565b840191505092915050565b60006020820190508181036000830152613eeb8184613e98565b905092915050565b613efc81613750565b82525050565b604082016000820151613f1860008501826136eb565b506020820151613f2b60208501826136aa565b50505050565b60006101a082019050613f47600083018f61399a565b613f54602083018e61399a565b613f61604083018d61399a565b613f6e606083018c61399a565b613f7b608083018b61399a565b613f8860a083018a61399a565b613f9560c0830189613c3c565b613fa260e0830188613ef3565b613fb061010083018761399a565b613fbe61012083018661399a565b613fcc610140830185613f02565b613fda61018083018461399a565b9d9c50505050505050505050505050565b7f4e487b7100000000000000000000000000000000000000000000000000000000600052604160045260246000fd5b7f4e487b7100000000000000000000000000000000000000000000000000000000600052603260045260246000fd5b7f4e487b7100000000000000000000000000000000000000000000000000000000600052601160045260246000fd5b6000614083826136a0565b91507fffffffffffffffffffffffffffffffffffffffffffffffffffffffffffffffff82036140b5576140b4614049565b5b600182019050919050565b7f596f75206d757374206265207468652061737369676e656420626f72726f776560008201527f7220666f722074686973206c6f616e0000000000000000000000000000000000602082015250565b600061411c602f83613e4c565b9150614127826140c0565b604082019050919050565b6000602082019050818103600083015261414b8161410f565b9050919050565b7f596f75206d75737420706179207468652066756c6c206c6f616e20616d6f756e60008201527f7420696e636c7564696e6720696e746572657374000000000000000000000000602082015250565b60006141ae603483613e4c565b91506141b982614152565b604082019050919050565b600060208201905081810360008301526141dd816141a1565b9050919050565b7f4c6f616e20737461747573206d75737420626520414354495645000000000000600082015250565b600061421a601a83613e4c565b9150614225826141e4565b602082019050919050565b600060208201905081810360008301526142498161420d565b9050919050565b600081905092915050565b50565b600061426b600083614250565b91506142768261425b565b600082019050919050565b600061428c8261425e565b9150819050919050565b7f4572726f723a205472616e73666572206661696c65642e000000000000000000600082015250565b60006142cc601783613e4c565b91506142d782614296565b602082019050919050565b600060208201905081810360008301526142fb816142bf565b9050919050565b60006060820190506143176000830186613c3c565b6143246020830185613c3c565b614331604083018461399a565b949350505050565b6000614344826136a0565b915061434f836136a0565b925082820190508082111561436757614366614049565b5b92915050565b7f506c6561736520656e74657220612076616c696420616d6f756e7420746f206c60008201527f656e640000000000000000000000000000000000000000000000000000000000602082015250565b60006143c9602383613e4c565b91506143d48261436d565b604082019050919050565b600060208201905081810360008301526143f8816143bc565b9050919050565b600081905092915050565b7f626f72726f776572000000000000000000000000000000000000000000000000600082015250565b60006144406008836143ff565b915061444b8261440a565b600882019050919050565b600061446182614433565b9150819050919050565b600061447682613e41565b61448081856143ff565b9350614490818560208601613e5d565b80840191505092915050565b60006144a8828461446b565b915081905092915050565b7f536f7272792c20796f752063616e2065697468657220626520616e206163746960008201527f7665206c6f616e6572206f722061206c656e646572206174206120676976656e60208201527f2074696d652e0000000000000000000000000000000000000000000000000000604082015250565b6000614535604683613e4c565b9150614540826144b3565b606082019050919050565b6000602082019050818103600083015261456481614528565b9050919050565b6000614576826136a0565b9150614581836136a0565b9250817fffffffffffffffffffffffffffffffffffffffffffffffffffffffffffffffff04831182151516156145ba576145b9614049565b5b828202905092915050565b7f4e487b7100000000000000000000000000000000000000000000000000000000600052601260045260246000fd5b60006145ff826136a0565b915061460a836136a0565b92508261461a576146196145c5565b5b828204905092915050565b6000614630826136a0565b915061463b836136a0565b925082820390508181111561465357614652614049565b5b92915050565b600060808201905061466e600083018761399a565b61467b602083018661399a565b614688604083018561399a565b614695606083018461399a565b95945050505050565b7f5265656e7472616e637947756172643a207265656e7472616e742063616c6c00600082015250565b60006146d4601f83613e4c565b91506146df8261469e565b602082019050919050565b60006020820190508181036000830152614703816146c7565b9050919050565b7f596f75206d757374206265207468652061737369676e6564206c656e64657200600082015250565b6000614740601f83613e4c565b915061474b8261470a565b602082019050919050565b6000602082019050818103600083015261476f81614733565b9050919050565b7f54686973206c656e64696e672066756e6420686173206d6174757265642c207060008201527f6c65617365207265717565737420746f2072656369657665207468652066756e60208201527f6473206261636b00000000000000000000000000000000000000000000000000604082015250565b60006147f8604783613e4c565b915061480382614776565b606082019050919050565b60006020820190508181036000830152614827816147eb565b9050919050565b7f696e746572657374206973206561726e656420696e20323420686f7572732c2060008201527f706c6561736520636865636b206261636b206c61746572000000000000000000602082015250565b600061488a603783613e4c565b91506148958261482e565b604082019050919050565b600060208201905081810360008301526148b98161487d565b9050919050565b6000815190506148cf81613b95565b92915050565b6000602082840312156148eb576148ea61393c565b5b60006148f9848285016148c0565b91505092915050565b7f4e6f7420746865206f776e6572206f66204e46542e0000000000000000000000600082015250565b6000614938601583613e4c565b915061494382614902565b602082019050919050565b600060208201905081810360008301526149678161492b565b9050919050565b7f536f7272792c2077652063616e6e6f7420617070726f76652074686973206c6f60008201527f616e2e205468652070726f76696465204e465420636f6c6c61746572616c207660208201527f616c756573206c657373207468616e20746865206c6f616e2e00000000000000604082015250565b60006149f0605983613e4c565b91506149fb8261496e565b606082019050919050565b60006020820190508181036000830152614a1f816149e3565b9050919050565b7f536f7272792c20776520646f6e74206861766520656e6f756768206c6971756960008201527f646974792061742074686973206d6f6d656e7420746f2066756e64207468697360208201527f206c6f616e2e0000000000000000000000000000000000000000000000000000604082015250565b6000614aa8604683613e4c565b9150614ab382614a26565b606082019050919050565b60006020820190508181036000830152614ad781614a9b565b9050919050565b7f596f75206861766520616e206f75747374616e64696e67206c6f616e2c20636160008201527f6e6e6f74206372656174652061206e6577206c6f616e2061742074686973206d60208201527f6f6d656e742e0000000000000000000000000000000000000000000000000000604082015250565b6000614b60604683613e4c565b9150614b6b82614ade565b606082019050919050565b60006020820190508181036000830152614b8f81614b53565b9050919050565b7f6c656e6465720000000000000000000000000000000000000000000000000000600082015250565b6000614bcc6006836143ff565b9150614bd782614b96565b600682019050919050565b6000614bed82614bbf565b9150819050919050565b7f596f75206e65656420746f207365742074686520636f6e74726163742061732060008201527f616e20617070726f766564206164647265737320666f72204e46540000000000602082015250565b6000614c53603b83613e4c565b9150614c5e82614bf7565b604082019050919050565b60006020820190508181036000830152614c8281614c46565b9050919050565b600060c082019050614c9e600083018961399a565b614cab602083018861399a565b614cb8604083018761399a565b614cc5606083018661399a565b614cd2608083018561399a565b614cdf60a083018461399a565b979650505050505050565b7f6c656e64696e672066756e64206973206e6f7420616374697665000000000000600082015250565b6000614d20601a83613e4c565b9150614d2b82614cea565b602082019050919050565b60006020820190508181036000830152614d4f81614d13565b9050919050565b7f6c656e64696e672066756e64206973206e6f74206d6174757265642079657400600082015250565b6000614d8c601f83613e4c565b9150614d9782614d56565b602082019050919050565b60006020820190508181036000830152614dbb81614d7f565b9050919050565b7f4c6f616e20737461747573206d75737420626520416374697665000000000000600082015250565b6000614df8601a83613e4c565b9150614e0382614dc2565b602082019050919050565b60006020820190508181036000830152614e2781614deb565b9050919050565b7f596f75206d757374206465706f73697420616d6f756e742061746c656173742060008201527f746865206d6f6e74686c79206465706f73697420616d6f756e74200000000000602082015250565b6000614e8a603b83613e4c565b9150614e9582614e2e565b604082019050919050565b60006020820190508181036000830152614eb981614e7d565b9050919050565b7f596f7572206465706f73697420616d6f756e74206578636565647320796f757260008201527f206c6f616e20616d6f756e740000000000000000000000000000000000000000602082015250565b6000614f1c602c83613e4c565b9150614f2782614ec0565b604082019050919050565b60006020820190508181036000830152614f4b81614f0f565b9050919050565b6000604082019050614f67600083018561399a565b614f74602083018461399a565b9392505050565b7f4f776e61626c653a206e6577206f776e657220697320746865207a65726f206160008201527f6464726573730000000000000000000000000000000000000000000000000000602082015250565b6000614fd7602683613e4c565b9150614fe282614f7b565b604082019050919050565b6000602082019050818103600083015261500681614fca565b9050919050565b7f4f776e61626c653a2063616c6c6572206973206e6f7420746865206f776e6572600082015250565b6000615043602083613e4c565b915061504e8261500d565b602082019050919050565b6000602082019050818103600083015261507281615036565b905091905056fea264697066735822122046de87e3b16257611dd1fb7b451f8a1a86a5cdc4b88e48e95bf7cd89981fea6664736f6c63430008100033",
  "immutableReferences": {},
  "source": "// SPDX-License-Identifier: MIT\npragma solidity ^0.8.0;\n\nimport \"@openzeppelin/contracts/token/ERC721/ERC721.sol\";\nimport \"@openzeppelin/contracts/access/Ownable.sol\";\nimport \"@openzeppelin/contracts/security/ReentrancyGuard.sol\";\nimport \"@openzeppelin/contracts/interfaces/IERC721.sol\";\n\ncontract LendBorrowContract is Ownable, ReentrancyGuard {\n\n    enum LoanStatus {\n        ACTIVE,\n        REPAID\n    }\n\n    enum LenderStatus {\n        ACTIVE,\n        MATURED\n    }\n\n    struct Nft {\n        address contractAddress;\n        uint tokenId;\n    }\n\n    struct Loan {\n        uint Id;\n        uint loanAmount;\n        uint fullAmount;\n        uint remainingAmount;\n        uint interestAmountPerMonth;\n        uint interest;\n        address borrower;\n        LoanStatus status;\n        uint creationTimeInSecs;\n        uint durationInYears;\n        Nft nftInfo;\n        uint monthlyDeposit;\n    }\n\n    struct Lend {\n        uint Id;\n        address lender;\n        uint lendingAmount;\n        uint rateOfReturn;\n        uint interestEarnedPerDay; \n        uint startTimeInSecs;\n        uint durationInSecs; \n        LenderStatus status;\n        uint latestTimeOfInterestRedeemedInSecs; \n    }\n\n    Loan[] public loans;\n    Lend[] public lenders;\n\n    uint liquidityAvailable;\n\n    mapping(uint => uint) public borrowingInterestRates;  \n    mapping(uint => uint) public lendingReturnRates; \n\n    // emit function for logging \n    event LogLoanCreation(uint indexed _loanId, address indexed _borrower, uint _amount, uint _interest, uint _fullAmount, uint _monthlyDepositAmount, uint _monthlyInterest, address indexed _nftContract, uint _nftTokenId );\n    event LogLoanDeposit(uint indexed _loanId, address indexed _borrower, uint _depositAmount, uint _remainingAmount);\n    event LogLoanPaid(address indexed _borrower, uint indexed _loanId, uint indexed _depositAmount, uint _remainingAmount);\n\n    event LogLenderCreation(uint indexed _lenderId,address indexed _lender, uint indexed _amount, uint _rateOfReturn, uint _interestEarnedPerDay, uint  _lendingDurationInSecs, uint _startTimeInSecs);\n    event LogLenderInterestRedemption(uint indexed _lenderId, address indexed _lender, uint indexed _interestRedeemed, uint _latestTimeOfInterestRedeemed);\n    event LogLenderMatured(uint indexed _lenderId, address indexed _lender, uint indexed _lenderAmount, uint _interestNotRedeemed);\n    event LogLiquidityAvailable(uint indexed _liquidityAvailable);\n\n    constructor() {\n\n      liquidityAvailable = 0;\n    \n      borrowingInterestRates[1] = 10; // 1 year => 10% interest\n      borrowingInterestRates[2] = 11; // 2 year => 11% interest\n\n      lendingReturnRates[1] = 5; // 1 year => 5% return\n      lendingReturnRates[2] = 6;// 2 year => 6% return\n\n    }\n\n    receive() external payable {}\n\n    function getAccountType(address _address) public view returns (string memory ) { \n\n        for(uint i=0; i < loans.length; i++) {\n\n            if(loans[i].borrower == _address && loans[i].status == LoanStatus.ACTIVE ) {\n\n                return \"borrower\";\n            }\n        }\n        \n        for(uint i=0; i < lenders.length; i++) {\n\n            if(lenders[i].lender == _address && lenders[i].status == LenderStatus.ACTIVE ) {\n\n                return \"lender\";\n            }\n        }\n\n        return \"InActive\";\n    }\n\n    function getLiquidityAvailable() external view returns (uint) {\n\n        return liquidityAvailable;\n    }\n\n     // Method to get all Loaners\n    function getAllLoaners() external view returns (Loan [] memory) {\n\n        return loans;\n    }\n\n    // Method to get all lenders\n    function getAllLenders() external view returns (Lend [] memory) {\n\n        return lenders;\n    }\n\n    // Method to get Loan\n    function getUsersLoan() external view returns ( Loan memory) {\n        Loan memory result;\n\n        for(uint i=0; i<loans.length; i++) {\n            if(loans[i].borrower == msg.sender) {\n                result = loans[i];\n                break;\n            }\n        }\n        return result;\n    }\n\n    // Method to get all lenders\n    function getUsersLendings() external view returns (Lend [] memory) {\n        Lend[] memory temporary = new Lend[](lenders.length);\n        uint counter = 0;\n        for(uint i=0; i<lenders.length; i++) {\n            if(lenders[i].lender == msg.sender) {\n                temporary[counter] = lenders[i];\n                counter++;\n            }\n        }\n\n        Lend[] memory result = new Lend[](counter);\n        for(uint i=0; i < counter; i++) {\n            result[i] = temporary[i];\n        }\n        \n        return result;\n    }\n\n    // to do function to calculate full amount\n    function calculateTotalInterestOwedByBorrower(uint _loanAmount, uint _interestRate) internal pure returns (uint) {\n\n       return ((_loanAmount * _interestRate)/100);\n    }\n\n    // to do monthly deposit calc\n    function calculateMonthlyLoanDeposit(uint _fullAmount, uint _loanDurationInMonths) internal pure returns (uint) {\n\n      return _fullAmount/ _loanDurationInMonths;    \n    }\n\n    function createLoan (uint _loanAmount, uint _loanDuration, address _nftAddress, uint _nftTokenId, uint _nftFloorPrice\n    ) external payable nonReentrant returns (uint) {\n\n        require(IERC721(_nftAddress).ownerOf(_nftTokenId) == msg.sender, \"Not the owner of NFT.\");\n\n        require(_loanAmount <= _nftFloorPrice, \"Sorry, we cannot approve this loan. The provide NFT collateral values less than the loan.\");\n\n        require(_loanAmount <= liquidityAvailable, \"Sorry, we dont have enough liquidity at this moment to fund this loan.\");\n\n        string memory accountType = getAccountType(msg.sender);\n\n        require(keccak256(abi.encodePacked(accountType)) != keccak256(abi.encodePacked(\"borrower\")), \"You have an outstanding loan, cannot create a new loan at this moment.\");\n        \n        require(keccak256(abi.encodePacked(accountType)) != keccak256(abi.encodePacked(\"lender\")), \"Sorry, you can either be an active loaner or a lender at a given time.\");\n        \n        require(IERC721(_nftAddress).getApproved(_nftTokenId) == address(this), \"You need to set the contract as an approved address for NFT\");\n\n        // transfer NFT - the owner has approved this smart contract to execute transfer from \n        IERC721(_nftAddress).transferFrom(msg.sender, address(this), _nftTokenId);\n       \n        // update liquidity value  \n        liquidityAvailable = liquidityAvailable - _loanAmount;\n        \n         // transfer funds to the caller\n        (bool success, ) = msg.sender.call{ value:_loanAmount }(\"\");\n\n        require(success, \"Error: Transfer failed.\");\n\n        uint loanId = addLoan(_loanAmount, _loanDuration, _nftAddress,_nftTokenId);\n        \n        emit LogLoanCreation(loanId,loans[loanId].borrower, loans[loanId].loanAmount, loans[loanId].interest, loans[loanId].fullAmount,\n        loans[loanId].monthlyDeposit, loans[loanId].interestAmountPerMonth, loans[loanId].nftInfo.contractAddress, loans[loanId].nftInfo.tokenId);\n\n        emit LogLiquidityAvailable(liquidityAvailable);\n        \n        return loanId;\n    }\n\n    function addLoan( uint _loanAmount, uint _loanDuration, address _nftAddress, uint _nftTokenId) internal returns (uint)\n    {\n        uint loanId = loans.length;\n\n        uint interestRate = borrowingInterestRates[_loanDuration];\n\n        uint interestAmount = calculateTotalInterestOwedByBorrower(_loanAmount, interestRate);\n\n        uint interestPerMonth = interestAmount/ (_loanDuration * 12);\n\n        uint fullAmount = _loanAmount + interestAmount;\n\n        uint monthlyDeposit = calculateMonthlyLoanDeposit(fullAmount, _loanDuration * 12);\n\n            loans.push(\n                Loan(\n                    loanId, \n                    _loanAmount,\n                    fullAmount,\n                    fullAmount,  // initially remaining amount equals fullAmount\n                    interestPerMonth,\n                    interestRate, \n                    msg.sender,\n                    LoanStatus.ACTIVE,\n                    block.timestamp,\n                    _loanDuration,\n                    Nft(_nftAddress, _nftTokenId),\n                    monthlyDeposit\n                ));\n\n            return loanId;\n    }\n\n    // method for borrowers to pay entire amount\n    function payCompleteLoan(uint _loanId) external payable {\n\n        require(msg.sender == loans[_loanId].borrower, \"You must be the assigned borrower for this loan\");\n\n        require(msg.value == (loans[_loanId].remainingAmount), \"You must pay the full loan amount including interest\");\n\n        require(loans[_loanId].status == LoanStatus.ACTIVE, \"Loan status must be ACTIVE\");\n\n        (bool success, ) = payable(address(this)).call{value: msg.value}(\"\");\n        require(success, \"Error: Transfer failed.\");\n\n        IERC721(loans[_loanId].nftInfo.contractAddress).transferFrom(address(this), msg.sender, loans[_loanId].nftInfo.tokenId);\n    \n        loans[_loanId].status = LoanStatus.REPAID;\n        loans[_loanId].remainingAmount = 0;\n\n        liquidityAvailable = liquidityAvailable + loans[_loanId].loanAmount; // add back just principle amount not the interest earned on the loan \n     \n        emit LogLoanPaid(msg.sender, _loanId, msg.value, loans[_loanId].remainingAmount);\n\n        emit LogLiquidityAvailable(liquidityAvailable);\n    }\n\n    //method for borrowers to to pay monthly deposit\n    function payLoanMonthlyDeposit(uint _loanId) external payable \n    {\n        require(loans[_loanId].status == LoanStatus.ACTIVE, \"Loan status must be Active\");\n\n        require(msg.value >= loans[_loanId].monthlyDeposit, \"You must deposit amount atleast the monthly deposit amount \");\n\n        require(msg.value <= loans[_loanId].fullAmount, \"Your deposit amount exceeds your loan amount\");\n\n        require(msg.sender == loans[_loanId].borrower, \"You must be the assigned borrower for this loan\");\n        \n        (bool success, ) = payable(address(this)).call{value: msg.value}(\"\");\n\n        require(success, \"Error: Transfer failed.\");\n\n        loans[_loanId].remainingAmount = loans[_loanId].remainingAmount - msg.value;\n\n        emit LogLoanDeposit(_loanId, msg.sender, msg.value, loans[_loanId].remainingAmount);\n\n        if(loans[_loanId].remainingAmount == 0)\n        {\n            loans[_loanId].status = LoanStatus.REPAID;\n\n            emit LogLoanPaid(msg.sender, _loanId, msg.value, loans[_loanId].remainingAmount);\n        }\n\n        liquidityAvailable = liquidityAvailable + (msg.value - loans[_loanId].interestAmountPerMonth); // update liquidity pool back subtracting the interest per month;\n\n        emit LogLiquidityAvailable(liquidityAvailable);\n    }\n\n     // to do function to calculate full amount\n    function calculateInterestEarnedPerDay (uint _totalInterestAmount, uint  _lendingDurationInYears) internal pure returns (uint) {\n\n        return ((_totalInterestAmount) /(365 * _lendingDurationInYears)) ;\n    }\n\n    // Lender methods\n    function createLender(uint _lendingDurationInYears) external payable returns (uint)\n    {\n        require(msg.value >0, \"Please enter a valid amount to lend\");\n\n        require(keccak256(abi.encodePacked(getAccountType(msg.sender))) != keccak256(abi.encodePacked(\"borrower\")), \"Sorry, you can either be an active loaner or a lender at a given time.\");\n       \n        uint lenderId = lenders.length;\n\n        uint rateOfReturn =   lendingReturnRates[_lendingDurationInYears];\n\n        uint interestAmount = (msg.value * rateOfReturn)/100;\n\n        uint interestEarnedPerDay = calculateInterestEarnedPerDay(interestAmount, _lendingDurationInYears);\n\n        (bool success, ) = payable(address(this)).call{value: msg.value}(\"\");\n\n        uint lendingDurationInSecs = _lendingDurationInYears * 365 * 24 * 60 * 60;\n\n        require(success, \"Error: Transfer failed.\");\n\n        lenders.push(\n            Lend(\n            lenderId,\n            msg.sender,\n            msg.value,\n            rateOfReturn,\n            interestEarnedPerDay,\n            block.timestamp,\n            lendingDurationInSecs,\n            LenderStatus.ACTIVE,  \n            block.timestamp \n            )\n        );\n\n        liquidityAvailable = liquidityAvailable + (msg.value - interestAmount); \n\n        emit LogLenderCreation(lenderId, msg.sender, msg.value, lenders[lenderId].rateOfReturn, lenders[lenderId].interestEarnedPerDay, lenders[lenderId].durationInSecs, lenders[lenderId].startTimeInSecs);\n\n        emit LogLiquidityAvailable(liquidityAvailable);\n\n        return lenderId;\n    }\n\n    //method  for redeeming interest for lenderers\n    function redeemLendersInterest(uint _lenderId) external payable nonReentrant {\n\n        require(msg.sender == lenders[_lenderId].lender, \"You must be the assigned lender\");\n\n        require((lenders[_lenderId].durationInSecs + lenders[_lenderId].startTimeInSecs) >= block.timestamp, \"This lending fund has matured, please request to recieve the funds back\");\n\n        uint noOfInterestDayAccumulated = (block.timestamp - lenders[_lenderId].latestTimeOfInterestRedeemedInSecs)/ (24 * 60 * 60);\n\n        require(noOfInterestDayAccumulated >= 1, \"interest is earned in 24 hours, please check back later\");\n\n        uint interestEarned = lenders[_lenderId].interestEarnedPerDay * noOfInterestDayAccumulated;\n\n        // update latest date of interest redeemed \n\n        lenders[_lenderId].latestTimeOfInterestRedeemedInSecs = lenders[_lenderId].latestTimeOfInterestRedeemedInSecs + ( noOfInterestDayAccumulated * 24 * 60 * 60); // add a day\n\n        (bool success, ) = msg.sender.call{value: interestEarned}(\"\");\n\n        require(success, \"Error: Transfer failed.\");\n\n        emit LogLenderInterestRedemption( _lenderId, lenders[_lenderId].lender, interestEarned,  lenders[_lenderId].latestTimeOfInterestRedeemedInSecs); \n\n        emit LogLiquidityAvailable(liquidityAvailable);\n    }\n\n    // method to transfer back locked amount for lenders after the duration is complete\n    function retrieveLendersFund(uint _lenderId) external payable nonReentrant{\n\n        require(msg.sender == lenders[_lenderId].lender, \"You must be the assigned lender\");\n\n        require(lenders[_lenderId].status == LenderStatus.ACTIVE, \"lending fund is not active\" );\n\n        require((lenders[_lenderId].durationInSecs + lenders[_lenderId].startTimeInSecs) <= block.timestamp, \"lending fund is not matured yet\" );\n\n        uint interestNotRedeemed = (lenders[_lenderId].interestEarnedPerDay * ((lenders[_lenderId].durationInSecs - (lenders[_lenderId].latestTimeOfInterestRedeemedInSecs - lenders[_lenderId].startTimeInSecs ))/ (24 * 60 * 60)));\n\n        lenders[_lenderId].status = LenderStatus.MATURED;\n        \n        liquidityAvailable = liquidityAvailable - lenders[_lenderId].lendingAmount; //update liquidity available \n\n        uint totalAmountToRefund = interestNotRedeemed + lenders[_lenderId].lendingAmount;\n\n        (bool success, ) = msg.sender.call{value: totalAmountToRefund}(\"\");\n\n        require(success, \"Error: Transfer failed.\"); \n\n        emit LogLiquidityAvailable(liquidityAvailable);\n\n        emit LogLenderMatured(_lenderId, lenders[_lenderId].lender, lenders[_lenderId].lendingAmount, interestNotRedeemed);\n    }\n\n}",
  "sourcePath": "/Users/muskansubnani/Documents/repos/lending-borrowing-dapp/contracts/LendBorrowContract.sol",
  "compiler": {
    "name": "solc",
    "version": "0.8.16+commit.07a7930e.Emscripten.clang"
  },
  "schemaVersion": "3.4.10",
  "updatedAt": "2022-11-03T18:57:39.280Z",
  "networkType": "ethereum",
  "devdoc": {
    "kind": "dev",
    "methods": {
      "owner()": {
        "details": "Returns the address of the current owner."
      },
      "renounceOwnership()": {
        "details": "Leaves the contract without owner. It will not be possible to call `onlyOwner` functions anymore. Can only be called by the current owner. NOTE: Renouncing ownership will leave the contract without an owner, thereby removing any functionality that is only available to the owner."
      },
      "transferOwnership(address)": {
        "details": "Transfers ownership of the contract to a new account (`newOwner`). Can only be called by the current owner."
      }
    },
    "version": 1
  },
  "userdoc": {
    "kind": "user",
    "methods": {},
    "version": 1
  }
}