{
  "contractName": "LendBorrowContract",
  "abi": [
    {
      "inputs": [],
      "stateMutability": "nonpayable",
      "type": "constructor"
    },
    {
      "anonymous": false,
      "inputs": [
        {
          "indexed": true,
          "internalType": "uint256",
          "name": "_lenderId",
          "type": "uint256"
        },
        {
          "indexed": true,
          "internalType": "address",
          "name": "_lender",
          "type": "address"
        },
        {
          "indexed": true,
          "internalType": "uint256",
          "name": "_amount",
          "type": "uint256"
        },
        {
          "indexed": false,
          "internalType": "uint256",
          "name": "_rateOfReturn",
          "type": "uint256"
        },
        {
          "indexed": false,
          "internalType": "uint256",
          "name": "_interestEarnedPerDay",
          "type": "uint256"
        },
        {
          "indexed": false,
          "internalType": "uint256",
          "name": "_lendingDurationInSecs",
          "type": "uint256"
        },
        {
          "indexed": false,
          "internalType": "uint256",
          "name": "_startTimeInSecs",
          "type": "uint256"
        }
      ],
      "name": "LogLenderCreation",
      "type": "event"
    },
    {
      "anonymous": false,
      "inputs": [
        {
          "indexed": true,
          "internalType": "uint256",
          "name": "_lenderId",
          "type": "uint256"
        },
        {
          "indexed": true,
          "internalType": "address",
          "name": "_lender",
          "type": "address"
        },
        {
          "indexed": true,
          "internalType": "uint256",
          "name": "_interestRedeemed",
          "type": "uint256"
        },
        {
          "indexed": false,
          "internalType": "uint256",
          "name": "_latestTimeOfInterestRedeemed",
          "type": "uint256"
        }
      ],
      "name": "LogLenderInterestRedemption",
      "type": "event"
    },
    {
      "anonymous": false,
      "inputs": [
        {
          "indexed": true,
          "internalType": "uint256",
          "name": "_lenderId",
          "type": "uint256"
        },
        {
          "indexed": true,
          "internalType": "address",
          "name": "_lender",
          "type": "address"
        },
        {
          "indexed": true,
          "internalType": "uint256",
          "name": "_lenderAmount",
          "type": "uint256"
        },
        {
          "indexed": false,
          "internalType": "uint256",
          "name": "_interestNotRedeemed",
          "type": "uint256"
        }
      ],
      "name": "LogLenderMatured",
      "type": "event"
    },
    {
      "anonymous": false,
      "inputs": [
        {
          "indexed": true,
          "internalType": "uint256",
          "name": "_liquidityAvailable",
          "type": "uint256"
        }
      ],
      "name": "LogLiquidityAvailable",
      "type": "event"
    },
    {
      "anonymous": false,
      "inputs": [
        {
          "indexed": true,
          "internalType": "uint256",
          "name": "_loanId",
          "type": "uint256"
        },
        {
          "indexed": true,
          "internalType": "address",
          "name": "_borrower",
          "type": "address"
        },
        {
          "indexed": false,
          "internalType": "uint256",
          "name": "_amount",
          "type": "uint256"
        },
        {
          "indexed": false,
          "internalType": "uint256",
          "name": "_interest",
          "type": "uint256"
        },
        {
          "indexed": false,
          "internalType": "uint256",
          "name": "_fullAmount",
          "type": "uint256"
        },
        {
          "indexed": false,
          "internalType": "uint256",
          "name": "_monthlyDepositAmount",
          "type": "uint256"
        },
        {
          "indexed": false,
          "internalType": "uint256",
          "name": "_monthlyInterest",
          "type": "uint256"
        },
        {
          "indexed": true,
          "internalType": "address",
          "name": "_nftContract",
          "type": "address"
        },
        {
          "indexed": false,
          "internalType": "uint256",
          "name": "_nftTokenId",
          "type": "uint256"
        }
      ],
      "name": "LogLoanCreation",
      "type": "event"
    },
    {
      "anonymous": false,
      "inputs": [
        {
          "indexed": true,
          "internalType": "uint256",
          "name": "_loanId",
          "type": "uint256"
        },
        {
          "indexed": true,
          "internalType": "address",
          "name": "_borrower",
          "type": "address"
        },
        {
          "indexed": false,
          "internalType": "uint256",
          "name": "_depositAmount",
          "type": "uint256"
        },
        {
          "indexed": false,
          "internalType": "uint256",
          "name": "_remainingAmount",
          "type": "uint256"
        }
      ],
      "name": "LogLoanDeposit",
      "type": "event"
    },
    {
      "anonymous": false,
      "inputs": [
        {
          "indexed": true,
          "internalType": "address",
          "name": "_borrower",
          "type": "address"
        },
        {
          "indexed": true,
          "internalType": "uint256",
          "name": "_loanId",
          "type": "uint256"
        },
        {
          "indexed": true,
          "internalType": "uint256",
          "name": "_depositAmount",
          "type": "uint256"
        },
        {
          "indexed": false,
          "internalType": "uint256",
          "name": "_remainingAmount",
          "type": "uint256"
        }
      ],
      "name": "LogLoanPaid",
      "type": "event"
    },
    {
      "anonymous": false,
      "inputs": [
        {
          "indexed": true,
          "internalType": "address",
          "name": "previousOwner",
          "type": "address"
        },
        {
          "indexed": true,
          "internalType": "address",
          "name": "newOwner",
          "type": "address"
        }
      ],
      "name": "OwnershipTransferred",
      "type": "event"
    },
    {
      "inputs": [
        {
          "internalType": "uint256",
          "name": "",
          "type": "uint256"
        }
      ],
      "name": "borrowingInterestRates",
      "outputs": [
        {
          "internalType": "uint256",
          "name": "",
          "type": "uint256"
        }
      ],
      "stateMutability": "view",
      "type": "function",
      "constant": true
    },
    {
      "inputs": [
        {
          "internalType": "uint256",
          "name": "",
          "type": "uint256"
        }
      ],
      "name": "lenders",
      "outputs": [
        {
          "internalType": "uint256",
          "name": "Id",
          "type": "uint256"
        },
        {
          "internalType": "address",
          "name": "lender",
          "type": "address"
        },
        {
          "internalType": "uint256",
          "name": "lendingAmount",
          "type": "uint256"
        },
        {
          "internalType": "uint256",
          "name": "rateOfReturn",
          "type": "uint256"
        },
        {
          "internalType": "uint256",
          "name": "interestEarnedPerDay",
          "type": "uint256"
        },
        {
          "internalType": "uint256",
          "name": "startTimeInSecs",
          "type": "uint256"
        },
        {
          "internalType": "uint256",
          "name": "durationInSecs",
          "type": "uint256"
        },
        {
          "internalType": "enum LendBorrowContract.LenderStatus",
          "name": "status",
          "type": "uint8"
        },
        {
          "internalType": "uint256",
          "name": "latestTimeOfInterestRedeemedInSecs",
          "type": "uint256"
        }
      ],
      "stateMutability": "view",
      "type": "function",
      "constant": true
    },
    {
      "inputs": [
        {
          "internalType": "uint256",
          "name": "",
          "type": "uint256"
        }
      ],
      "name": "lendingReturnRates",
      "outputs": [
        {
          "internalType": "uint256",
          "name": "",
          "type": "uint256"
        }
      ],
      "stateMutability": "view",
      "type": "function",
      "constant": true
    },
    {
      "inputs": [
        {
          "internalType": "uint256",
          "name": "",
          "type": "uint256"
        }
      ],
      "name": "loans",
      "outputs": [
        {
          "internalType": "uint256",
          "name": "Id",
          "type": "uint256"
        },
        {
          "internalType": "uint256",
          "name": "loanAmount",
          "type": "uint256"
        },
        {
          "internalType": "uint256",
          "name": "fullAmount",
          "type": "uint256"
        },
        {
          "internalType": "uint256",
          "name": "remainingAmount",
          "type": "uint256"
        },
        {
          "internalType": "uint256",
          "name": "interestAmountPerMonth",
          "type": "uint256"
        },
        {
          "internalType": "uint256",
          "name": "interest",
          "type": "uint256"
        },
        {
          "internalType": "address",
          "name": "borrower",
          "type": "address"
        },
        {
          "internalType": "enum LendBorrowContract.LoanStatus",
          "name": "status",
          "type": "uint8"
        },
        {
          "internalType": "uint256",
          "name": "creationTimeInSecs",
          "type": "uint256"
        },
        {
          "internalType": "uint256",
          "name": "durationInYears",
          "type": "uint256"
        },
        {
          "components": [
            {
              "internalType": "address",
              "name": "contractAddress",
              "type": "address"
            },
            {
              "internalType": "uint256",
              "name": "tokenId",
              "type": "uint256"
            }
          ],
          "internalType": "struct LendBorrowContract.Nft",
          "name": "nftInfo",
          "type": "tuple"
        },
        {
          "internalType": "uint256",
          "name": "monthlyDeposit",
          "type": "uint256"
        }
      ],
      "stateMutability": "view",
      "type": "function",
      "constant": true
    },
    {
      "inputs": [],
      "name": "owner",
      "outputs": [
        {
          "internalType": "address",
          "name": "",
          "type": "address"
        }
      ],
      "stateMutability": "view",
      "type": "function",
      "constant": true
    },
    {
      "inputs": [],
      "name": "renounceOwnership",
      "outputs": [],
      "stateMutability": "nonpayable",
      "type": "function"
    },
    {
      "inputs": [
        {
          "internalType": "address",
          "name": "newOwner",
          "type": "address"
        }
      ],
      "name": "transferOwnership",
      "outputs": [],
      "stateMutability": "nonpayable",
      "type": "function"
    },
    {
      "stateMutability": "payable",
      "type": "receive",
      "payable": true
    },
    {
      "inputs": [
        {
          "internalType": "address",
          "name": "_address",
          "type": "address"
        }
      ],
      "name": "getAccountType",
      "outputs": [
        {
          "internalType": "string",
          "name": "",
          "type": "string"
        }
      ],
      "stateMutability": "view",
      "type": "function",
      "constant": true
    },
    {
      "inputs": [],
      "name": "getLiquidityAvailable",
      "outputs": [
        {
          "internalType": "uint256",
          "name": "",
          "type": "uint256"
        }
      ],
      "stateMutability": "view",
      "type": "function",
      "constant": true
    },
    {
      "inputs": [],
      "name": "getAllLoaners",
      "outputs": [
        {
          "components": [
            {
              "internalType": "uint256",
              "name": "Id",
              "type": "uint256"
            },
            {
              "internalType": "uint256",
              "name": "loanAmount",
              "type": "uint256"
            },
            {
              "internalType": "uint256",
              "name": "fullAmount",
              "type": "uint256"
            },
            {
              "internalType": "uint256",
              "name": "remainingAmount",
              "type": "uint256"
            },
            {
              "internalType": "uint256",
              "name": "interestAmountPerMonth",
              "type": "uint256"
            },
            {
              "internalType": "uint256",
              "name": "interest",
              "type": "uint256"
            },
            {
              "internalType": "address",
              "name": "borrower",
              "type": "address"
            },
            {
              "internalType": "enum LendBorrowContract.LoanStatus",
              "name": "status",
              "type": "uint8"
            },
            {
              "internalType": "uint256",
              "name": "creationTimeInSecs",
              "type": "uint256"
            },
            {
              "internalType": "uint256",
              "name": "durationInYears",
              "type": "uint256"
            },
            {
              "components": [
                {
                  "internalType": "address",
                  "name": "contractAddress",
                  "type": "address"
                },
                {
                  "internalType": "uint256",
                  "name": "tokenId",
                  "type": "uint256"
                }
              ],
              "internalType": "struct LendBorrowContract.Nft",
              "name": "nftInfo",
              "type": "tuple"
            },
            {
              "internalType": "uint256",
              "name": "monthlyDeposit",
              "type": "uint256"
            }
          ],
          "internalType": "struct LendBorrowContract.Loan[]",
          "name": "",
          "type": "tuple[]"
        }
      ],
      "stateMutability": "view",
      "type": "function",
      "constant": true
    },
    {
      "inputs": [],
      "name": "getAllLenders",
      "outputs": [
        {
          "components": [
            {
              "internalType": "uint256",
              "name": "Id",
              "type": "uint256"
            },
            {
              "internalType": "address",
              "name": "lender",
              "type": "address"
            },
            {
              "internalType": "uint256",
              "name": "lendingAmount",
              "type": "uint256"
            },
            {
              "internalType": "uint256",
              "name": "rateOfReturn",
              "type": "uint256"
            },
            {
              "internalType": "uint256",
              "name": "interestEarnedPerDay",
              "type": "uint256"
            },
            {
              "internalType": "uint256",
              "name": "startTimeInSecs",
              "type": "uint256"
            },
            {
              "internalType": "uint256",
              "name": "durationInSecs",
              "type": "uint256"
            },
            {
              "internalType": "enum LendBorrowContract.LenderStatus",
              "name": "status",
              "type": "uint8"
            },
            {
              "internalType": "uint256",
              "name": "latestTimeOfInterestRedeemedInSecs",
              "type": "uint256"
            }
          ],
          "internalType": "struct LendBorrowContract.Lend[]",
          "name": "",
          "type": "tuple[]"
        }
      ],
      "stateMutability": "view",
      "type": "function",
      "constant": true
    },
    {
      "inputs": [],
      "name": "getUsersLoan",
      "outputs": [
        {
          "components": [
            {
              "internalType": "uint256",
              "name": "Id",
              "type": "uint256"
            },
            {
              "internalType": "uint256",
              "name": "loanAmount",
              "type": "uint256"
            },
            {
              "internalType": "uint256",
              "name": "fullAmount",
              "type": "uint256"
            },
            {
              "internalType": "uint256",
              "name": "remainingAmount",
              "type": "uint256"
            },
            {
              "internalType": "uint256",
              "name": "interestAmountPerMonth",
              "type": "uint256"
            },
            {
              "internalType": "uint256",
              "name": "interest",
              "type": "uint256"
            },
            {
              "internalType": "address",
              "name": "borrower",
              "type": "address"
            },
            {
              "internalType": "enum LendBorrowContract.LoanStatus",
              "name": "status",
              "type": "uint8"
            },
            {
              "internalType": "uint256",
              "name": "creationTimeInSecs",
              "type": "uint256"
            },
            {
              "internalType": "uint256",
              "name": "durationInYears",
              "type": "uint256"
            },
            {
              "components": [
                {
                  "internalType": "address",
                  "name": "contractAddress",
                  "type": "address"
                },
                {
                  "internalType": "uint256",
                  "name": "tokenId",
                  "type": "uint256"
                }
              ],
              "internalType": "struct LendBorrowContract.Nft",
              "name": "nftInfo",
              "type": "tuple"
            },
            {
              "internalType": "uint256",
              "name": "monthlyDeposit",
              "type": "uint256"
            }
          ],
          "internalType": "struct LendBorrowContract.Loan[]",
          "name": "",
          "type": "tuple[]"
        }
      ],
      "stateMutability": "view",
      "type": "function",
      "constant": true
    },
    {
      "inputs": [],
      "name": "getUsersLendings",
      "outputs": [
        {
          "components": [
            {
              "internalType": "uint256",
              "name": "Id",
              "type": "uint256"
            },
            {
              "internalType": "address",
              "name": "lender",
              "type": "address"
            },
            {
              "internalType": "uint256",
              "name": "lendingAmount",
              "type": "uint256"
            },
            {
              "internalType": "uint256",
              "name": "rateOfReturn",
              "type": "uint256"
            },
            {
              "internalType": "uint256",
              "name": "interestEarnedPerDay",
              "type": "uint256"
            },
            {
              "internalType": "uint256",
              "name": "startTimeInSecs",
              "type": "uint256"
            },
            {
              "internalType": "uint256",
              "name": "durationInSecs",
              "type": "uint256"
            },
            {
              "internalType": "enum LendBorrowContract.LenderStatus",
              "name": "status",
              "type": "uint8"
            },
            {
              "internalType": "uint256",
              "name": "latestTimeOfInterestRedeemedInSecs",
              "type": "uint256"
            }
          ],
          "internalType": "struct LendBorrowContract.Lend[]",
          "name": "",
          "type": "tuple[]"
        }
      ],
      "stateMutability": "view",
      "type": "function",
      "constant": true
    },
    {
      "inputs": [
        {
          "internalType": "uint256",
          "name": "_loanAmount",
          "type": "uint256"
        },
        {
          "internalType": "uint256",
          "name": "_loanDuration",
          "type": "uint256"
        },
        {
          "internalType": "address",
          "name": "_nftAddress",
          "type": "address"
        },
        {
          "internalType": "uint256",
          "name": "_nftTokenId",
          "type": "uint256"
        },
        {
          "internalType": "uint256",
          "name": "_nftFloorPrice",
          "type": "uint256"
        }
      ],
      "name": "createLoan",
      "outputs": [
        {
          "internalType": "uint256",
          "name": "",
          "type": "uint256"
        }
      ],
      "stateMutability": "payable",
      "type": "function",
      "payable": true
    },
    {
      "inputs": [
        {
          "internalType": "uint256",
          "name": "_loanId",
          "type": "uint256"
        }
      ],
      "name": "payCompleteLoan",
      "outputs": [],
      "stateMutability": "payable",
      "type": "function",
      "payable": true
    },
    {
      "inputs": [
        {
          "internalType": "uint256",
          "name": "_loanId",
          "type": "uint256"
        }
      ],
      "name": "payLoanMonthlyDeposit",
      "outputs": [],
      "stateMutability": "payable",
      "type": "function",
      "payable": true
    },
    {
      "inputs": [
        {
          "internalType": "uint256",
          "name": "_lendingDurationInYears",
          "type": "uint256"
        }
      ],
      "name": "createLender",
      "outputs": [
        {
          "internalType": "uint256",
          "name": "",
          "type": "uint256"
        }
      ],
      "stateMutability": "payable",
      "type": "function",
      "payable": true
    },
    {
      "inputs": [
        {
          "internalType": "uint256",
          "name": "_lenderId",
          "type": "uint256"
        }
      ],
      "name": "redeemLendersInterest",
      "outputs": [],
      "stateMutability": "payable",
      "type": "function",
      "payable": true
    },
    {
      "inputs": [
        {
          "internalType": "uint256",
          "name": "_lenderId",
          "type": "uint256"
        }
      ],
      "name": "retrieveLendersFund",
      "outputs": [],
      "stateMutability": "payable",
      "type": "function",
      "payable": true
    }
  ],
  "bytecode": "0x60806040523480156200001157600080fd5b506200003262000026620000ae60201b60201c565b620000b660201b60201c565b600180819055506000600481905550600a600560006001815260200190815260200160002081905550600b6005600060028152602001908152602001600020819055506005600660006001815260200190815260200160002081905550600680600060028152602001908152602001600020819055506200017a565b600033905090565b60008060009054906101000a900473ffffffffffffffffffffffffffffffffffffffff169050816000806101000a81548173ffffffffffffffffffffffffffffffffffffffff021916908373ffffffffffffffffffffffffffffffffffffffff1602179055508173ffffffffffffffffffffffffffffffffffffffff168173ffffffffffffffffffffffffffffffffffffffff167f8be0079c531659141344cd1fd0a4f28419497f9722a3daafe3b4186f6b6457e060405160405180910390a35050565b6150c5806200018a6000396000f3fe6080604052600436106101185760003560e01c80638449cc0c116100a0578063a1666b5411610064578063a1666b5414610385578063aafc5a3c146103b0578063ae203146146103cc578063e1ec3c6814610409578063f2fde38b146104515761011f565b80638449cc0c1461029e57806388055fb3146102ce5780638da5cb5b146102ea578063929eea21146103155780639662e44c1461035a5761011f565b8063547706dd116100e7578063547706dd146101e257806368f17e11146101fe5780636d8b94e81461023b578063715018a61461026b5780637c69973c146102825761011f565b806306e7297914610124578063159d970b1461014f57806329eee7eb1461018c5780634696e5f3146101b75761011f565b3661011f57005b600080fd5b34801561013057600080fd5b5061013961047a565b6040516101469190613a42565b60405180910390f35b34801561015b57600080fd5b5061017660048036038101906101719190613a95565b610639565b6040516101839190613ad1565b60405180910390f35b34801561019857600080fd5b506101a1610651565b6040516101ae9190613c9b565b60405180910390f35b3480156101c357600080fd5b506101cc610938565b6040516101d99190613ad1565b60405180910390f35b6101fc60048036038101906101f79190613a95565b610942565b005b34801561020a57600080fd5b5061022560048036038101906102209190613a95565b610dda565b6040516102329190613ad1565b60405180910390f35b61025560048036038101906102509190613a95565b610df2565b6040516102629190613ad1565b60405180910390f35b34801561027757600080fd5b50610280611291565b005b61029c60048036038101906102979190613a95565b6112a5565b005b6102b860048036038101906102b39190613ce9565b611718565b6040516102c59190613ad1565b60405180910390f35b6102e860048036038101906102e39190613a95565b611e44565b005b3480156102f657600080fd5b506102ff61239b565b60405161030c9190613d73565b60405180910390f35b34801561032157600080fd5b5061033c60048036038101906103379190613a95565b6123c4565b60405161035199989796959493929190613d9d565b60405180910390f35b34801561036657600080fd5b5061036f61244f565b60405161037c9190613a42565b60405180910390f35b34801561039157600080fd5b5061039a6127be565b6040516103a79190613c9b565b60405180910390f35b6103ca60048036038101906103c59190613a95565b6128f5565b005b3480156103d857600080fd5b506103f360048036038101906103ee9190613e2a565b612df5565b6040516104009190613ee7565b60405180910390f35b34801561041557600080fd5b50610430600480360381019061042b9190613a95565b6130af565b6040516104489c9b9a99989796959493929190613f47565b60405180910390f35b34801561045d57600080fd5b5061047860048036038101906104739190613e2a565b6131b6565b005b60606002805480602002602001604051908101604052809291908181526020016000905b8282101561063057838290600052602060002090600c0201604051806101800160405290816000820154815260200160018201548152602001600282015481526020016003820154815260200160048201548152602001600582015481526020016006820160009054906101000a900473ffffffffffffffffffffffffffffffffffffffff1673ffffffffffffffffffffffffffffffffffffffff1673ffffffffffffffffffffffffffffffffffffffff1681526020016006820160149054906101000a900460ff16600181111561057957610578613822565b5b600181111561058b5761058a613822565b5b81526020016007820154815260200160088201548152602001600982016040518060400160405290816000820160009054906101000a900473ffffffffffffffffffffffffffffffffffffffff1673ffffffffffffffffffffffffffffffffffffffff1673ffffffffffffffffffffffffffffffffffffffff1681526020016001820154815250508152602001600b820154815250508152602001906001019061049e565b50505050905090565b60066020528060005260406000206000915090505481565b6060600060038054905067ffffffffffffffff81111561067457610673614001565b5b6040519080825280602002602001820160405280156106ad57816020015b61069a613669565b8152602001906001900390816106925790505b5090506000805b60038054905081101561087e573373ffffffffffffffffffffffffffffffffffffffff16600382815481106106ec576106eb614030565b5b906000526020600020906009020160010160009054906101000a900473ffffffffffffffffffffffffffffffffffffffff1673ffffffffffffffffffffffffffffffffffffffff160361086b576003818154811061074d5761074c614030565b5b906000526020600020906009020160405180610120016040529081600082015481526020016001820160009054906101000a900473ffffffffffffffffffffffffffffffffffffffff1673ffffffffffffffffffffffffffffffffffffffff1673ffffffffffffffffffffffffffffffffffffffff16815260200160028201548152602001600382015481526020016004820154815260200160058201548152602001600682015481526020016007820160009054906101000a900460ff16600181111561081e5761081d613822565b5b60018111156108305761082f613822565b5b815260200160088201548152505083838151811061085157610850614030565b5b602002602001018190525081806108679061408e565b9250505b80806108769061408e565b9150506106b4565b5060008167ffffffffffffffff81111561089b5761089a614001565b5b6040519080825280602002602001820160405280156108d457816020015b6108c1613669565b8152602001906001900390816108b95790505b50905060005b8281101561092e578381815181106108f5576108f4614030565b5b60200260200101518282815181106109105761090f614030565b5b602002602001018190525080806109269061408e565b9150506108da565b5080935050505090565b6000600454905090565b6002818154811061095657610955614030565b5b90600052602060002090600c020160060160009054906101000a900473ffffffffffffffffffffffffffffffffffffffff1673ffffffffffffffffffffffffffffffffffffffff163373ffffffffffffffffffffffffffffffffffffffff16146109f5576040517f08c379a00000000000000000000000000000000000000000000000000000000081526004016109ec90614148565b60405180910390fd5b60028181548110610a0957610a08614030565b5b90600052602060002090600c0201600301543414610a5c576040517f08c379a0000000000000000000000000000000000000000000000000000000008152600401610a53906141da565b60405180910390fd5b60006001811115610a7057610a6f613822565b5b60028281548110610a8457610a83614030565b5b90600052602060002090600c020160060160149054906101000a900460ff166001811115610ab557610ab4613822565b5b14610af5576040517f08c379a0000000000000000000000000000000000000000000000000000000008152600401610aec90614246565b60405180910390fd5b60003073ffffffffffffffffffffffffffffffffffffffff1634604051610b1b90614297565b60006040518083038185875af1925050503d8060008114610b58576040519150601f19603f3d011682016040523d82523d6000602084013e610b5d565b606091505b5050905080610ba1576040517f08c379a0000000000000000000000000000000000000000000000000000000008152600401610b98906142f8565b60405180910390fd5b60028281548110610bb557610bb4614030565b5b90600052602060002090600c020160090160000160009054906101000a900473ffffffffffffffffffffffffffffffffffffffff1673ffffffffffffffffffffffffffffffffffffffff166323b872dd303360028681548110610c1b57610c1a614030565b5b90600052602060002090600c0201600901600101546040518463ffffffff1660e01b8152600401610c4e93929190614318565b600060405180830381600087803b158015610c6857600080fd5b505af1158015610c7c573d6000803e3d6000fd5b50505050600160028381548110610c9657610c95614030565b5b90600052602060002090600c020160060160146101000a81548160ff02191690836001811115610cc957610cc8613822565b5b0217905550600060028381548110610ce457610ce3614030565b5b90600052602060002090600c02016003018190555060028281548110610d0d57610d0c614030565b5b90600052602060002090600c020160010154600454610d2c919061434f565b60048190555034823373ffffffffffffffffffffffffffffffffffffffff167f65d6ad82ff9abb27c70147ab3919dd5ae6bf4d541ea2ba245afe7b554aeefc3660028681548110610d8057610d7f614030565b5b90600052602060002090600c020160030154604051610d9f9190613ad1565b60405180910390a46004547fa050751736fed002d83abc87e07f97401bf301145e7f4eb2e2718ab10a6d5d3c60405160405180910390a25050565b60056020528060005260406000206000915090505481565b6000803411610e36576040517f08c379a0000000000000000000000000000000000000000000000000000000008152600401610e2d906143f5565b60405180910390fd5b604051602001610e459061446c565b60405160208183030381529060405280519060200120610e6433612df5565b604051602001610e7491906144b2565b6040516020818303038152906040528051906020012003610eca576040517f08c379a0000000000000000000000000000000000000000000000000000000008152600401610ec190614561565b60405180910390fd5b60006003805490509050600060066000858152602001908152602001600020549050600060648234610efc9190614581565b610f06919061460a565b90506000610f148287613239565b905060003073ffffffffffffffffffffffffffffffffffffffff1634604051610f3c90614297565b60006040518083038185875af1925050503d8060008114610f79576040519150601f19603f3d011682016040523d82523d6000602084013e610f7e565b606091505b505090506000603c80601861016d8b610f979190614581565b610fa19190614581565b610fab9190614581565b610fb59190614581565b905081610ff7576040517f08c379a0000000000000000000000000000000000000000000000000000000008152600401610fee906142f8565b60405180910390fd5b60036040518061012001604052808881526020013373ffffffffffffffffffffffffffffffffffffffff1681526020013481526020018781526020018581526020014281526020018381526020016000600181111561105957611058613822565b5b81526020014281525090806001815401808255809150506001900390600052602060002090600902016000909190919091506000820151816000015560208201518160010160006101000a81548173ffffffffffffffffffffffffffffffffffffffff021916908373ffffffffffffffffffffffffffffffffffffffff16021790555060408201518160020155606082015181600301556080820151816004015560a0820151816005015560c0820151816006015560e08201518160070160006101000a81548160ff0219169083600181111561113957611138613822565b5b0217905550610100820151816008015550508334611157919061463b565b600454611164919061434f565b600481905550343373ffffffffffffffffffffffffffffffffffffffff16877f1f2634d93613be6e3bb0ab1fd8adac3d5a4cf849d3a08560becd32e82ac8d0b860038a815481106111b8576111b7614030565b5b90600052602060002090600902016003015460038b815481106111de576111dd614030565b5b90600052602060002090600902016004015460038c8154811061120457611203614030565b5b90600052602060002090600902016006015460038d8154811061122a57611229614030565b5b90600052602060002090600902016005015460405161124c949392919061466f565b60405180910390a46004547fa050751736fed002d83abc87e07f97401bf301145e7f4eb2e2718ab10a6d5d3c60405160405180910390a2859650505050505050919050565b61129961325c565b6112a360006132da565b565b6002600154036112ea576040517f08c379a00000000000000000000000000000000000000000000000000000000081526004016112e190614700565b60405180910390fd5b60026001819055506003818154811061130657611305614030565b5b906000526020600020906009020160010160009054906101000a900473ffffffffffffffffffffffffffffffffffffffff1673ffffffffffffffffffffffffffffffffffffffff163373ffffffffffffffffffffffffffffffffffffffff16146113a5576040517f08c379a000000000000000000000000000000000000000000000000000000000815260040161139c9061476c565b60405180910390fd5b42600382815481106113ba576113b9614030565b5b906000526020600020906009020160050154600383815481106113e0576113df614030565b5b9060005260206000209060090201600601546113fc919061434f565b101561143d576040517f08c379a000000000000000000000000000000000000000000000000000000000815260040161143490614824565b60405180910390fd5b6000620151806003838154811061145757611456614030565b5b90600052602060002090600902016008015442611474919061463b565b61147e919061460a565b905060018110156114c4576040517f08c379a00000000000000000000000000000000000000000000000000000000081526004016114bb906148b6565b60405180910390fd5b600081600384815481106114db576114da614030565b5b9060005260206000209060090201600401546114f79190614581565b9050603c806018846115099190614581565b6115139190614581565b61151d9190614581565b6003848154811061153157611530614030565b5b90600052602060002090600902016008015461154d919061434f565b6003848154811061156157611560614030565b5b90600052602060002090600902016008018190555060003373ffffffffffffffffffffffffffffffffffffffff168260405161159c90614297565b60006040518083038185875af1925050503d80600081146115d9576040519150601f19603f3d011682016040523d82523d6000602084013e6115de565b606091505b5050905080611622576040517f08c379a0000000000000000000000000000000000000000000000000000000008152600401611619906142f8565b60405180910390fd5b816003858154811061163757611636614030565b5b906000526020600020906009020160010160009054906101000a900473ffffffffffffffffffffffffffffffffffffffff1673ffffffffffffffffffffffffffffffffffffffff16857f5ccbe759e2154705f56638a6d44d4ef7bd3bac0fbb9855bda3f8be485ddb3645600388815481106116b5576116b4614030565b5b9060005260206000209060090201600801546040516116d49190613ad1565b60405180910390a46004547fa050751736fed002d83abc87e07f97401bf301145e7f4eb2e2718ab10a6d5d3c60405160405180910390a25050506001808190555050565b600060026001540361175f576040517f08c379a000000000000000000000000000000000000000000000000000000000815260040161175690614700565b60405180910390fd5b60026001819055503373ffffffffffffffffffffffffffffffffffffffff168473ffffffffffffffffffffffffffffffffffffffff16636352211e856040518263ffffffff1660e01b81526004016117b79190613ad1565b602060405180830381865afa1580156117d4573d6000803e3d6000fd5b505050506040513d601f19601f820116820180604052508101906117f891906148eb565b73ffffffffffffffffffffffffffffffffffffffff161461184e576040517f08c379a000000000000000000000000000000000000000000000000000000000815260040161184590614964565b60405180910390fd5b81861115611891576040517f08c379a000000000000000000000000000000000000000000000000000000000815260040161188890614a1c565b60405180910390fd5b6004548611156118d6576040517f08c379a00000000000000000000000000000000000000000000000000000000081526004016118cd90614ad4565b60405180910390fd5b60006118e133612df5565b90506040516020016118f29061446c565b604051602081830303815290604052805190602001208160405160200161191991906144b2565b604051602081830303815290604052805190602001200361196f576040517f08c379a000000000000000000000000000000000000000000000000000000000815260040161196690614b8c565b60405180910390fd5b60405160200161197e90614bf8565b60405160208183030381529060405280519060200120816040516020016119a591906144b2565b60405160208183030381529060405280519060200120036119fb576040517f08c379a00000000000000000000000000000000000000000000000000000000081526004016119f290614561565b60405180910390fd5b3073ffffffffffffffffffffffffffffffffffffffff168573ffffffffffffffffffffffffffffffffffffffff1663081812fc866040518263ffffffff1660e01b8152600401611a4b9190613ad1565b602060405180830381865afa158015611a68573d6000803e3d6000fd5b505050506040513d601f19601f82011682018060405250810190611a8c91906148eb565b73ffffffffffffffffffffffffffffffffffffffff1614611ae2576040517f08c379a0000000000000000000000000000000000000000000000000000000008152600401611ad990614c7f565b60405180910390fd5b8473ffffffffffffffffffffffffffffffffffffffff166323b872dd3330876040518463ffffffff1660e01b8152600401611b1f93929190614318565b600060405180830381600087803b158015611b3957600080fd5b505af1158015611b4d573d6000803e3d6000fd5b5050505086600454611b5f919061463b565b60048190555060003373ffffffffffffffffffffffffffffffffffffffff1688604051611b8b90614297565b60006040518083038185875af1925050503d8060008114611bc8576040519150601f19603f3d011682016040523d82523d6000602084013e611bcd565b606091505b5050905080611c11576040517f08c379a0000000000000000000000000000000000000000000000000000000008152600401611c08906142f8565b60405180910390fd5b6000611c1f8989898961339e565b905060028181548110611c3557611c34614030565b5b90600052602060002090600c020160090160000160009054906101000a900473ffffffffffffffffffffffffffffffffffffffff1673ffffffffffffffffffffffffffffffffffffffff1660028281548110611c9457611c93614030565b5b90600052602060002090600c020160060160009054906101000a900473ffffffffffffffffffffffffffffffffffffffff1673ffffffffffffffffffffffffffffffffffffffff16827f58370ce1e111cef197325eb5ad6343fa3acad99982c5c7bc9719c8d89d0b82c960028581548110611d1257611d11614030565b5b90600052602060002090600c02016001015460028681548110611d3857611d37614030565b5b90600052602060002090600c02016005015460028781548110611d5e57611d5d614030565b5b90600052602060002090600c02016002015460028881548110611d8457611d83614030565b5b90600052602060002090600c0201600b015460028981548110611daa57611da9614030565b5b90600052602060002090600c02016004015460028a81548110611dd057611dcf614030565b5b90600052602060002090600c020160090160010154604051611df796959493929190614c9f565b60405180910390a46004547fa050751736fed002d83abc87e07f97401bf301145e7f4eb2e2718ab10a6d5d3c60405160405180910390a28093505050506001808190555095945050505050565b600260015403611e89576040517f08c379a0000000000000000000000000000000000000000000000000000000008152600401611e8090614700565b60405180910390fd5b600260018190555060038181548110611ea557611ea4614030565b5b906000526020600020906009020160010160009054906101000a900473ffffffffffffffffffffffffffffffffffffffff1673ffffffffffffffffffffffffffffffffffffffff163373ffffffffffffffffffffffffffffffffffffffff1614611f44576040517f08c379a0000000000000000000000000000000000000000000000000000000008152600401611f3b9061476c565b60405180910390fd5b60006001811115611f5857611f57613822565b5b60038281548110611f6c57611f6b614030565b5b906000526020600020906009020160070160009054906101000a900460ff166001811115611f9d57611f9c613822565b5b14611fdd576040517f08c379a0000000000000000000000000000000000000000000000000000000008152600401611fd490614d4c565b60405180910390fd5b4260038281548110611ff257611ff1614030565b5b9060005260206000209060090201600501546003838154811061201857612017614030565b5b906000526020600020906009020160060154612034919061434f565b1115612075576040517f08c379a000000000000000000000000000000000000000000000000000000000815260040161206c90614db8565b60405180910390fd5b6000620151806003838154811061208f5761208e614030565b5b906000526020600020906009020160050154600384815481106120b5576120b4614030565b5b9060005260206000209060090201600801546120d1919061463b565b600384815481106120e5576120e4614030565b5b906000526020600020906009020160060154612101919061463b565b61210b919061460a565b6003838154811061211f5761211e614030565b5b90600052602060002090600902016004015461213b9190614581565b905060016003838154811061215357612152614030565b5b906000526020600020906009020160070160006101000a81548160ff0219169083600181111561218657612185613822565b5b02179055506003828154811061219f5761219e614030565b5b9060005260206000209060090201600201546004546121be919061463b565b6004819055506000600383815481106121da576121d9614030565b5b906000526020600020906009020160020154826121f7919061434f565b905060003373ffffffffffffffffffffffffffffffffffffffff168260405161221f90614297565b60006040518083038185875af1925050503d806000811461225c576040519150601f19603f3d011682016040523d82523d6000602084013e612261565b606091505b50509050806122a5576040517f08c379a000000000000000000000000000000000000000000000000000000000815260040161229c906142f8565b60405180910390fd5b6004547fa050751736fed002d83abc87e07f97401bf301145e7f4eb2e2718ab10a6d5d3c60405160405180910390a2600384815481106122e8576122e7614030565b5b9060005260206000209060090201600201546003858154811061230e5761230d614030565b5b906000526020600020906009020160010160009054906101000a900473ffffffffffffffffffffffffffffffffffffffff1673ffffffffffffffffffffffffffffffffffffffff16857ffa0d48c9476cd063510b6da30920a2e669e07841b4ed6a81096f5155d991ee18866040516123869190613ad1565b60405180910390a45050506001808190555050565b60008060009054906101000a900473ffffffffffffffffffffffffffffffffffffffff16905090565b600381815481106123d457600080fd5b90600052602060002090600902016000915090508060000154908060010160009054906101000a900473ffffffffffffffffffffffffffffffffffffffff16908060020154908060030154908060040154908060050154908060060154908060070160009054906101000a900460ff16908060080154905089565b6060600060028054905067ffffffffffffffff81111561247257612471614001565b5b6040519080825280602002602001820160405280156124ab57816020015b6124986136dd565b8152602001906001900390816124905790505b5090506000805b600280549050811015612704573373ffffffffffffffffffffffffffffffffffffffff16600282815481106124ea576124e9614030565b5b90600052602060002090600c020160060160009054906101000a900473ffffffffffffffffffffffffffffffffffffffff1673ffffffffffffffffffffffffffffffffffffffff16036126f1576002818154811061254b5761254a614030565b5b90600052602060002090600c0201604051806101800160405290816000820154815260200160018201548152602001600282015481526020016003820154815260200160048201548152602001600582015481526020016006820160009054906101000a900473ffffffffffffffffffffffffffffffffffffffff1673ffffffffffffffffffffffffffffffffffffffff1673ffffffffffffffffffffffffffffffffffffffff1681526020016006820160149054906101000a900460ff16600181111561261c5761261b613822565b5b600181111561262e5761262d613822565b5b81526020016007820154815260200160088201548152602001600982016040518060400160405290816000820160009054906101000a900473ffffffffffffffffffffffffffffffffffffffff1673ffffffffffffffffffffffffffffffffffffffff1673ffffffffffffffffffffffffffffffffffffffff1681526020016001820154815250508152602001600b820154815250508383815181106126d7576126d6614030565b5b602002602001018190525081806126ed9061408e565b9250505b80806126fc9061408e565b9150506124b2565b5060008167ffffffffffffffff81111561272157612720614001565b5b60405190808252806020026020018201604052801561275a57816020015b6127476136dd565b81526020019060019003908161273f5790505b50905060005b828110156127b45783818151811061277b5761277a614030565b5b602002602001015182828151811061279657612795614030565b5b602002602001018190525080806127ac9061408e565b915050612760565b5080935050505090565b60606003805480602002602001604051908101604052809291908181526020016000905b828210156128ec578382906000526020600020906009020160405180610120016040529081600082015481526020016001820160009054906101000a900473ffffffffffffffffffffffffffffffffffffffff1673ffffffffffffffffffffffffffffffffffffffff1673ffffffffffffffffffffffffffffffffffffffff16815260200160028201548152602001600382015481526020016004820154815260200160058201548152602001600682015481526020016007820160009054906101000a900460ff1660018111156128bd576128bc613822565b5b60018111156128cf576128ce613822565b5b8152602001600882015481525050815260200190600101906127e2565b50505050905090565b6000600181111561290957612908613822565b5b6002828154811061291d5761291c614030565b5b90600052602060002090600c020160060160149054906101000a900460ff16600181111561294e5761294d613822565b5b1461298e576040517f08c379a000000000000000000000000000000000000000000000000000000000815260040161298590614e24565b60405180910390fd5b600281815481106129a2576129a1614030565b5b90600052602060002090600c0201600b01543410156129f6576040517f08c379a00000000000000000000000000000000000000000000000000000000081526004016129ed90614eb6565b60405180910390fd5b60028181548110612a0a57612a09614030565b5b90600052602060002090600c020160020154341115612a5e576040517f08c379a0000000000000000000000000000000000000000000000000000000008152600401612a5590614f48565b60405180910390fd5b60028181548110612a7257612a71614030565b5b90600052602060002090600c020160060160009054906101000a900473ffffffffffffffffffffffffffffffffffffffff1673ffffffffffffffffffffffffffffffffffffffff163373ffffffffffffffffffffffffffffffffffffffff1614612b11576040517f08c379a0000000000000000000000000000000000000000000000000000000008152600401612b0890614148565b60405180910390fd5b60003073ffffffffffffffffffffffffffffffffffffffff1634604051612b3790614297565b60006040518083038185875af1925050503d8060008114612b74576040519150601f19603f3d011682016040523d82523d6000602084013e612b79565b606091505b5050905080612bbd576040517f08c379a0000000000000000000000000000000000000000000000000000000008152600401612bb4906142f8565b60405180910390fd5b3460028381548110612bd257612bd1614030565b5b90600052602060002090600c020160030154612bee919061463b565b60028381548110612c0257612c01614030565b5b90600052602060002090600c0201600301819055503373ffffffffffffffffffffffffffffffffffffffff16827f5c1df0303f45203f3c43f22c0e3c511ab6617363bb7c6bacd2bd23b8a81707a03460028681548110612c6557612c64614030565b5b90600052602060002090600c020160030154604051612c85929190614f68565b60405180910390a3600060028381548110612ca357612ca2614030565b5b90600052602060002090600c02016003015403612d7e57600160028381548110612cd057612ccf614030565b5b90600052602060002090600c020160060160146101000a81548160ff02191690836001811115612d0357612d02613822565b5b021790555034823373ffffffffffffffffffffffffffffffffffffffff167f65d6ad82ff9abb27c70147ab3919dd5ae6bf4d541ea2ba245afe7b554aeefc3660028681548110612d5657612d55614030565b5b90600052602060002090600c020160030154604051612d759190613ad1565b60405180910390a45b60028281548110612d9257612d91614030565b5b90600052602060002090600c02016004015434612daf919061463b565b600454612dbc919061434f565b6004819055506004547fa050751736fed002d83abc87e07f97401bf301145e7f4eb2e2718ab10a6d5d3c60405160405180910390a25050565b606060005b600280549050811015612f33578273ffffffffffffffffffffffffffffffffffffffff1660028281548110612e3257612e31614030565b5b90600052602060002090600c020160060160009054906101000a900473ffffffffffffffffffffffffffffffffffffffff1673ffffffffffffffffffffffffffffffffffffffff16148015612edd575060006001811115612e9657612e95613822565b5b60028281548110612eaa57612ea9614030565b5b90600052602060002090600c020160060160149054906101000a900460ff166001811115612edb57612eda613822565b5b145b15612f20576040518060400160405280600881526020017f626f72726f7765720000000000000000000000000000000000000000000000008152509150506130aa565b8080612f2b9061408e565b915050612dfa565b5060005b600380549050811015613070578273ffffffffffffffffffffffffffffffffffffffff1660038281548110612f6f57612f6e614030565b5b906000526020600020906009020160010160009054906101000a900473ffffffffffffffffffffffffffffffffffffffff1673ffffffffffffffffffffffffffffffffffffffff1614801561301a575060006001811115612fd357612fd2613822565b5b60038281548110612fe757612fe6614030565b5b906000526020600020906009020160070160009054906101000a900460ff16600181111561301857613017613822565b5b145b1561305d576040518060400160405280600681526020017f6c656e64657200000000000000000000000000000000000000000000000000008152509150506130aa565b80806130689061408e565b915050612f37565b506040518060400160405280600881526020017f496e41637469766500000000000000000000000000000000000000000000000081525090505b919050565b600281815481106130bf57600080fd5b90600052602060002090600c02016000915090508060000154908060010154908060020154908060030154908060040154908060050154908060060160009054906101000a900473ffffffffffffffffffffffffffffffffffffffff16908060060160149054906101000a900460ff1690806007015490806008015490806009016040518060400160405290816000820160009054906101000a900473ffffffffffffffffffffffffffffffffffffffff1673ffffffffffffffffffffffffffffffffffffffff1673ffffffffffffffffffffffffffffffffffffffff1681526020016001820154815250509080600b015490508c565b6131be61325c565b600073ffffffffffffffffffffffffffffffffffffffff168173ffffffffffffffffffffffffffffffffffffffff160361322d576040517f08c379a000000000000000000000000000000000000000000000000000000000815260040161322490615003565b60405180910390fd5b613236816132da565b50565b60008161016d6132499190614581565b83613254919061460a565b905092915050565b613264613629565b73ffffffffffffffffffffffffffffffffffffffff1661328261239b565b73ffffffffffffffffffffffffffffffffffffffff16146132d8576040517f08c379a00000000000000000000000000000000000000000000000000000000081526004016132cf9061506f565b60405180910390fd5b565b60008060009054906101000a900473ffffffffffffffffffffffffffffffffffffffff169050816000806101000a81548173ffffffffffffffffffffffffffffffffffffffff021916908373ffffffffffffffffffffffffffffffffffffffff1602179055508173ffffffffffffffffffffffffffffffffffffffff168173ffffffffffffffffffffffffffffffffffffffff167f8be0079c531659141344cd1fd0a4f28419497f9722a3daafe3b4186f6b6457e060405160405180910390a35050565b600080600280549050905060006005600087815260200190815260200160002054905060006133cd8883613631565b90506000600c886133de9190614581565b826133e9919061460a565b90506000828a6133f9919061434f565b9050600061341382600c8c61340e9190614581565b613653565b905060026040518061018001604052808881526020018d81526020018481526020018481526020018581526020018781526020013373ffffffffffffffffffffffffffffffffffffffff1681526020016000600181111561347757613476613822565b5b81526020014281526020018c815260200160405180604001604052808d73ffffffffffffffffffffffffffffffffffffffff1681526020018c81525081526020018381525090806001815401808255809150506001900390600052602060002090600c0201600090919091909150600082015181600001556020820151816001015560408201518160020155606082015181600301556080820151816004015560a0820151816005015560c08201518160060160006101000a81548173ffffffffffffffffffffffffffffffffffffffff021916908373ffffffffffffffffffffffffffffffffffffffff16021790555060e08201518160060160146101000a81548160ff0219169083600181111561359357613592613822565b5b0217905550610100820151816007015561012082015181600801556101408201518160090160008201518160000160006101000a81548173ffffffffffffffffffffffffffffffffffffffff021916908373ffffffffffffffffffffffffffffffffffffffff16021790555060208201518160010155505061016082015181600b01555050859650505050505050949350505050565b600033905090565b6000606482846136419190614581565b61364b919061460a565b905092915050565b60008183613661919061460a565b905092915050565b60405180610120016040528060008152602001600073ffffffffffffffffffffffffffffffffffffffff1681526020016000815260200160008152602001600081526020016000815260200160008152602001600060018111156136d0576136cf613822565b5b8152602001600081525090565b604051806101800160405280600081526020016000815260200160008152602001600081526020016000815260200160008152602001600073ffffffffffffffffffffffffffffffffffffffff1681526020016000600181111561374457613743613822565b5b8152602001600081526020016000815260200161375f61376c565b8152602001600081525090565b6040518060400160405280600073ffffffffffffffffffffffffffffffffffffffff168152602001600081525090565b600081519050919050565b600082825260208201905092915050565b6000819050602082019050919050565b6000819050919050565b6137db816137c8565b82525050565b600073ffffffffffffffffffffffffffffffffffffffff82169050919050565b600061380c826137e1565b9050919050565b61381c81613801565b82525050565b7f4e487b7100000000000000000000000000000000000000000000000000000000600052602160045260246000fd5b6002811061386257613861613822565b5b50565b600081905061387382613851565b919050565b600061388382613865565b9050919050565b61389381613878565b82525050565b6040820160008201516138af6000850182613813565b5060208201516138c260208501826137d2565b50505050565b6101a0820160008201516138df60008501826137d2565b5060208201516138f260208501826137d2565b50604082015161390560408501826137d2565b50606082015161391860608501826137d2565b50608082015161392b60808501826137d2565b5060a082015161393e60a08501826137d2565b5060c082015161395160c0850182613813565b5060e082015161396460e085018261388a565b506101008201516139796101008501826137d2565b5061012082015161398e6101208501826137d2565b506101408201516139a3610140850182613899565b506101608201516139b86101808501826137d2565b50505050565b60006139ca83836138c8565b6101a08301905092915050565b6000602082019050919050565b60006139ef8261379c565b6139f981856137a7565b9350613a04836137b8565b8060005b83811015613a35578151613a1c88826139be565b9750613a27836139d7565b925050600181019050613a08565b5085935050505092915050565b60006020820190508181036000830152613a5c81846139e4565b905092915050565b600080fd5b613a72816137c8565b8114613a7d57600080fd5b50565b600081359050613a8f81613a69565b92915050565b600060208284031215613aab57613aaa613a64565b5b6000613ab984828501613a80565b91505092915050565b613acb816137c8565b82525050565b6000602082019050613ae66000830184613ac2565b92915050565b600081519050919050565b600082825260208201905092915050565b6000819050602082019050919050565b60028110613b2957613b28613822565b5b50565b6000819050613b3a82613b18565b919050565b6000613b4a82613b2c565b9050919050565b613b5a81613b3f565b82525050565b61012082016000820151613b7760008501826137d2565b506020820151613b8a6020850182613813565b506040820151613b9d60408501826137d2565b506060820151613bb060608501826137d2565b506080820151613bc360808501826137d2565b5060a0820151613bd660a08501826137d2565b5060c0820151613be960c08501826137d2565b5060e0820151613bfc60e0850182613b51565b50610100820151613c116101008501826137d2565b50505050565b6000613c238383613b60565b6101208301905092915050565b6000602082019050919050565b6000613c4882613aec565b613c528185613af7565b9350613c5d83613b08565b8060005b83811015613c8e578151613c758882613c17565b9750613c8083613c30565b925050600181019050613c61565b5085935050505092915050565b60006020820190508181036000830152613cb58184613c3d565b905092915050565b613cc681613801565b8114613cd157600080fd5b50565b600081359050613ce381613cbd565b92915050565b600080600080600060a08688031215613d0557613d04613a64565b5b6000613d1388828901613a80565b9550506020613d2488828901613a80565b9450506040613d3588828901613cd4565b9350506060613d4688828901613a80565b9250506080613d5788828901613a80565b9150509295509295909350565b613d6d81613801565b82525050565b6000602082019050613d886000830184613d64565b92915050565b613d9781613b3f565b82525050565b600061012082019050613db3600083018c613ac2565b613dc0602083018b613d64565b613dcd604083018a613ac2565b613dda6060830189613ac2565b613de76080830188613ac2565b613df460a0830187613ac2565b613e0160c0830186613ac2565b613e0e60e0830185613d8e565b613e1c610100830184613ac2565b9a9950505050505050505050565b600060208284031215613e4057613e3f613a64565b5b6000613e4e84828501613cd4565b91505092915050565b600081519050919050565b600082825260208201905092915050565b60005b83811015613e91578082015181840152602081019050613e76565b60008484015250505050565b6000601f19601f8301169050919050565b6000613eb982613e57565b613ec38185613e62565b9350613ed3818560208601613e73565b613edc81613e9d565b840191505092915050565b60006020820190508181036000830152613f018184613eae565b905092915050565b613f1281613878565b82525050565b604082016000820151613f2e6000850182613813565b506020820151613f4160208501826137d2565b50505050565b60006101a082019050613f5d600083018f613ac2565b613f6a602083018e613ac2565b613f77604083018d613ac2565b613f84606083018c613ac2565b613f91608083018b613ac2565b613f9e60a083018a613ac2565b613fab60c0830189613d64565b613fb860e0830188613f09565b613fc6610100830187613ac2565b613fd4610120830186613ac2565b613fe2610140830185613f18565b613ff0610180830184613ac2565b9d9c50505050505050505050505050565b7f4e487b7100000000000000000000000000000000000000000000000000000000600052604160045260246000fd5b7f4e487b7100000000000000000000000000000000000000000000000000000000600052603260045260246000fd5b7f4e487b7100000000000000000000000000000000000000000000000000000000600052601160045260246000fd5b6000614099826137c8565b91507fffffffffffffffffffffffffffffffffffffffffffffffffffffffffffffffff82036140cb576140ca61405f565b5b600182019050919050565b7f596f75206d757374206265207468652061737369676e656420626f72726f776560008201527f7220666f722074686973206c6f616e0000000000000000000000000000000000602082015250565b6000614132602f83613e62565b915061413d826140d6565b604082019050919050565b6000602082019050818103600083015261416181614125565b9050919050565b7f596f75206d75737420706179207468652066756c6c206c6f616e20616d6f756e60008201527f7420696e636c7564696e6720696e746572657374000000000000000000000000602082015250565b60006141c4603483613e62565b91506141cf82614168565b604082019050919050565b600060208201905081810360008301526141f3816141b7565b9050919050565b7f4c6f616e20737461747573206d75737420626520414354495645000000000000600082015250565b6000614230601a83613e62565b915061423b826141fa565b602082019050919050565b6000602082019050818103600083015261425f81614223565b9050919050565b600081905092915050565b50565b6000614281600083614266565b915061428c82614271565b600082019050919050565b60006142a282614274565b9150819050919050565b7f4572726f723a205472616e73666572206661696c65642e000000000000000000600082015250565b60006142e2601783613e62565b91506142ed826142ac565b602082019050919050565b60006020820190508181036000830152614311816142d5565b9050919050565b600060608201905061432d6000830186613d64565b61433a6020830185613d64565b6143476040830184613ac2565b949350505050565b600061435a826137c8565b9150614365836137c8565b925082820190508082111561437d5761437c61405f565b5b92915050565b7f506c6561736520656e74657220612076616c696420616d6f756e7420746f206c60008201527f656e640000000000000000000000000000000000000000000000000000000000602082015250565b60006143df602383613e62565b91506143ea82614383565b604082019050919050565b6000602082019050818103600083015261440e816143d2565b9050919050565b600081905092915050565b7f626f72726f776572000000000000000000000000000000000000000000000000600082015250565b6000614456600883614415565b915061446182614420565b600882019050919050565b600061447782614449565b9150819050919050565b600061448c82613e57565b6144968185614415565b93506144a6818560208601613e73565b80840191505092915050565b60006144be8284614481565b915081905092915050565b7f536f7272792c20796f752063616e2065697468657220626520616e206163746960008201527f7665206c6f616e6572206f722061206c656e646572206174206120676976656e60208201527f2074696d652e0000000000000000000000000000000000000000000000000000604082015250565b600061454b604683613e62565b9150614556826144c9565b606082019050919050565b6000602082019050818103600083015261457a8161453e565b9050919050565b600061458c826137c8565b9150614597836137c8565b9250817fffffffffffffffffffffffffffffffffffffffffffffffffffffffffffffffff04831182151516156145d0576145cf61405f565b5b828202905092915050565b7f4e487b7100000000000000000000000000000000000000000000000000000000600052601260045260246000fd5b6000614615826137c8565b9150614620836137c8565b9250826146305761462f6145db565b5b828204905092915050565b6000614646826137c8565b9150614651836137c8565b92508282039050818111156146695761466861405f565b5b92915050565b60006080820190506146846000830187613ac2565b6146916020830186613ac2565b61469e6040830185613ac2565b6146ab6060830184613ac2565b95945050505050565b7f5265656e7472616e637947756172643a207265656e7472616e742063616c6c00600082015250565b60006146ea601f83613e62565b91506146f5826146b4565b602082019050919050565b60006020820190508181036000830152614719816146dd565b9050919050565b7f596f75206d757374206265207468652061737369676e6564206c656e64657200600082015250565b6000614756601f83613e62565b915061476182614720565b602082019050919050565b6000602082019050818103600083015261478581614749565b9050919050565b7f54686973206c656e64696e672066756e6420686173206d6174757265642c207060008201527f6c65617365207265717565737420746f2072656369657665207468652066756e60208201527f6473206261636b00000000000000000000000000000000000000000000000000604082015250565b600061480e604783613e62565b91506148198261478c565b606082019050919050565b6000602082019050818103600083015261483d81614801565b9050919050565b7f696e746572657374206973206561726e656420696e20323420686f7572732c2060008201527f706c6561736520636865636b206261636b206c61746572000000000000000000602082015250565b60006148a0603783613e62565b91506148ab82614844565b604082019050919050565b600060208201905081810360008301526148cf81614893565b9050919050565b6000815190506148e581613cbd565b92915050565b60006020828403121561490157614900613a64565b5b600061490f848285016148d6565b91505092915050565b7f4e6f7420746865206f776e6572206f66204e46542e0000000000000000000000600082015250565b600061494e601583613e62565b915061495982614918565b602082019050919050565b6000602082019050818103600083015261497d81614941565b9050919050565b7f536f7272792c2077652063616e6e6f7420617070726f76652074686973206c6f60008201527f616e2e205468652070726f76696465204e465420636f6c6c61746572616c207660208201527f616c756573206c657373207468616e20746865206c6f616e2e00000000000000604082015250565b6000614a06605983613e62565b9150614a1182614984565b606082019050919050565b60006020820190508181036000830152614a35816149f9565b9050919050565b7f536f7272792c20776520646f6e74206861766520656e6f756768206c6971756960008201527f646974792061742074686973206d6f6d656e7420746f2066756e64207468697360208201527f206c6f616e2e0000000000000000000000000000000000000000000000000000604082015250565b6000614abe604683613e62565b9150614ac982614a3c565b606082019050919050565b60006020820190508181036000830152614aed81614ab1565b9050919050565b7f596f75206861766520616e206f75747374616e64696e67206c6f616e2c20636160008201527f6e6e6f74206372656174652061206e6577206c6f616e2061742074686973206d60208201527f6f6d656e742e0000000000000000000000000000000000000000000000000000604082015250565b6000614b76604683613e62565b9150614b8182614af4565b606082019050919050565b60006020820190508181036000830152614ba581614b69565b9050919050565b7f6c656e6465720000000000000000000000000000000000000000000000000000600082015250565b6000614be2600683614415565b9150614bed82614bac565b600682019050919050565b6000614c0382614bd5565b9150819050919050565b7f596f75206e65656420746f207365742074686520636f6e74726163742061732060008201527f616e20617070726f766564206164647265737320666f72204e46540000000000602082015250565b6000614c69603b83613e62565b9150614c7482614c0d565b604082019050919050565b60006020820190508181036000830152614c9881614c5c565b9050919050565b600060c082019050614cb46000830189613ac2565b614cc16020830188613ac2565b614cce6040830187613ac2565b614cdb6060830186613ac2565b614ce86080830185613ac2565b614cf560a0830184613ac2565b979650505050505050565b7f6c656e64696e672066756e64206973206e6f7420616374697665000000000000600082015250565b6000614d36601a83613e62565b9150614d4182614d00565b602082019050919050565b60006020820190508181036000830152614d6581614d29565b9050919050565b7f6c656e64696e672066756e64206973206e6f74206d6174757265642079657400600082015250565b6000614da2601f83613e62565b9150614dad82614d6c565b602082019050919050565b60006020820190508181036000830152614dd181614d95565b9050919050565b7f4c6f616e20737461747573206d75737420626520416374697665000000000000600082015250565b6000614e0e601a83613e62565b9150614e1982614dd8565b602082019050919050565b60006020820190508181036000830152614e3d81614e01565b9050919050565b7f596f75206d757374206465706f73697420616d6f756e742061746c656173742060008201527f746865206d6f6e74686c79206465706f73697420616d6f756e74200000000000602082015250565b6000614ea0603b83613e62565b9150614eab82614e44565b604082019050919050565b60006020820190508181036000830152614ecf81614e93565b9050919050565b7f596f7572206465706f73697420616d6f756e74206578636565647320796f757260008201527f206c6f616e20616d6f756e740000000000000000000000000000000000000000602082015250565b6000614f32602c83613e62565b9150614f3d82614ed6565b604082019050919050565b60006020820190508181036000830152614f6181614f25565b9050919050565b6000604082019050614f7d6000830185613ac2565b614f8a6020830184613ac2565b9392505050565b7f4f776e61626c653a206e6577206f776e657220697320746865207a65726f206160008201527f6464726573730000000000000000000000000000000000000000000000000000602082015250565b6000614fed602683613e62565b9150614ff882614f91565b604082019050919050565b6000602082019050818103600083015261501c81614fe0565b9050919050565b7f4f776e61626c653a2063616c6c6572206973206e6f7420746865206f776e6572600082015250565b6000615059602083613e62565b915061506482615023565b602082019050919050565b600060208201905081810360008301526150888161504c565b905091905056fea264697066735822122079c76fd45ec9cf2621b17e2d2fc6f8328ebce4a6ce7b0794537c050809b7fac664736f6c63430008100033",
  "immutableReferences": {},
  "source": "// SPDX-License-Identifier: MIT\npragma solidity ^0.8.0;\n\nimport \"@openzeppelin/contracts/token/ERC721/ERC721.sol\";\nimport \"@openzeppelin/contracts/access/Ownable.sol\";\nimport \"@openzeppelin/contracts/security/ReentrancyGuard.sol\";\nimport \"@openzeppelin/contracts/interfaces/IERC721.sol\";\n\ncontract LendBorrowContract is Ownable, ReentrancyGuard {\n\n    enum LoanStatus {\n        ACTIVE,\n        REPAID\n    }\n\n    enum LenderStatus {\n        ACTIVE,\n        MATURED\n    }\n\n    struct Nft {\n        address contractAddress;\n        uint tokenId;\n    }\n\n    struct Loan {\n        uint Id;\n        uint loanAmount;\n        uint fullAmount;\n        uint remainingAmount;\n        uint interestAmountPerMonth;\n        uint interest;\n        address borrower;\n        LoanStatus status;\n        uint creationTimeInSecs;\n        uint durationInYears;\n        Nft nftInfo;\n        uint monthlyDeposit;\n    }\n\n    struct Lend {\n        uint Id;\n        address lender;\n        uint lendingAmount;\n        uint rateOfReturn;\n        uint interestEarnedPerDay; \n        uint startTimeInSecs;\n        uint durationInSecs; \n        LenderStatus status;\n        uint latestTimeOfInterestRedeemedInSecs; \n    }\n\n    Loan[] public loans;\n    Lend[] public lenders;\n\n    uint liquidityAvailable;\n\n    mapping(uint => uint) public borrowingInterestRates;  \n    mapping(uint => uint) public lendingReturnRates; \n\n    // emit function for logging \n    event LogLoanCreation(uint indexed _loanId, address indexed _borrower, uint _amount, uint _interest, uint _fullAmount, uint _monthlyDepositAmount, uint _monthlyInterest, address indexed _nftContract, uint _nftTokenId );\n    event LogLoanDeposit(uint indexed _loanId, address indexed _borrower, uint _depositAmount, uint _remainingAmount);\n    event LogLoanPaid(address indexed _borrower, uint indexed _loanId, uint indexed _depositAmount, uint _remainingAmount);\n\n    event LogLenderCreation(uint indexed _lenderId,address indexed _lender, uint indexed _amount, uint _rateOfReturn, uint _interestEarnedPerDay, uint  _lendingDurationInSecs, uint _startTimeInSecs);\n    event LogLenderInterestRedemption(uint indexed _lenderId, address indexed _lender, uint indexed _interestRedeemed, uint _latestTimeOfInterestRedeemed);\n    event LogLenderMatured(uint indexed _lenderId, address indexed _lender, uint indexed _lenderAmount, uint _interestNotRedeemed);\n    event LogLiquidityAvailable(uint indexed _liquidityAvailable);\n\n    constructor() {\n\n      liquidityAvailable = 0;\n    \n      borrowingInterestRates[1] = 10; // 1 year => 10% interest\n      borrowingInterestRates[2] = 11; // 2 year => 11% interest\n\n      lendingReturnRates[1] = 5; // 1 year => 5% return\n      lendingReturnRates[2] = 6;// 2 year => 6% return\n\n    }\n\n    receive() external payable {}\n\n    function getAccountType(address _address) public view returns (string memory ) { \n\n        for(uint i=0; i < loans.length; i++) {\n\n            if(loans[i].borrower == _address && loans[i].status == LoanStatus.ACTIVE ) {\n\n                return \"borrower\";\n            }\n        }\n        \n        for(uint i=0; i < lenders.length; i++) {\n\n            if(lenders[i].lender == _address && lenders[i].status == LenderStatus.ACTIVE ) {\n\n                return \"lender\";\n            }\n        }\n\n        return \"InActive\";\n    }\n\n    function getLiquidityAvailable() external view returns (uint) {\n\n        return liquidityAvailable;\n    }\n\n     // Method to get all Loaners\n    function getAllLoaners() external view returns (Loan [] memory) {\n\n        return loans;\n    }\n\n    // Method to get all lenders\n    function getAllLenders() external view returns (Lend [] memory) {\n\n        return lenders;\n    }\n\n    // Method to get all Loaners\n    function getUsersLoan() external view returns ( Loan[] memory) {\n        Loan[] memory temporary = new Loan[](loans.length);\n        uint counter = 0;\n        for(uint i=0; i < loans.length; i++) {\n            if(loans[i].borrower == msg.sender) {\n                temporary[counter] = loans[i];\n                counter++;\n            }\n        }\n\n        Loan[] memory result = new Loan[](counter);\n        for(uint i=0; i < counter; i++) {\n            result[i] = temporary[i];\n        }\n        \n        return result;\n    }\n\n    // Method to get all lenders\n    function getUsersLendings() external view returns (Lend [] memory) {\n        Lend[] memory temporary = new Lend[](lenders.length);\n        uint counter = 0;\n        for(uint i=0; i<lenders.length; i++) {\n            if(lenders[i].lender == msg.sender) {\n                temporary[counter] = lenders[i];\n                counter++;\n            }\n        }\n\n        Lend[] memory result = new Lend[](counter);\n        for(uint i=0; i < counter; i++) {\n            result[i] = temporary[i];\n        }\n        \n        return result;\n    }\n\n    // to do function to calculate full amount\n    function calculateTotalInterestOwedByBorrower(uint _loanAmount, uint _interestRate) internal pure returns (uint) {\n\n       return ((_loanAmount * _interestRate)/100);\n    }\n\n    // to do monthly deposit calc\n    function calculateMonthlyLoanDeposit(uint _fullAmount, uint _loanDurationInMonths) internal pure returns (uint) {\n\n      return _fullAmount/ _loanDurationInMonths;    \n    }\n\n    function createLoan (uint _loanAmount, uint _loanDuration, address _nftAddress, uint _nftTokenId, uint _nftFloorPrice\n    ) external payable nonReentrant returns (uint) {\n\n        require(IERC721(_nftAddress).ownerOf(_nftTokenId) == msg.sender, \"Not the owner of NFT.\");\n\n        require(_loanAmount <= _nftFloorPrice, \"Sorry, we cannot approve this loan. The provide NFT collateral values less than the loan.\");\n\n        require(_loanAmount <= liquidityAvailable, \"Sorry, we dont have enough liquidity at this moment to fund this loan.\");\n\n        string memory accountType = getAccountType(msg.sender);\n\n        require(keccak256(abi.encodePacked(accountType)) != keccak256(abi.encodePacked(\"borrower\")), \"You have an outstanding loan, cannot create a new loan at this moment.\");\n        \n        require(keccak256(abi.encodePacked(accountType)) != keccak256(abi.encodePacked(\"lender\")), \"Sorry, you can either be an active loaner or a lender at a given time.\");\n        \n        require(IERC721(_nftAddress).getApproved(_nftTokenId) == address(this), \"You need to set the contract as an approved address for NFT\");\n\n        // transfer NFT - the owner has approved this smart contract to execute transfer from \n        IERC721(_nftAddress).transferFrom(msg.sender, address(this), _nftTokenId);\n       \n        // update liquidity value  \n        liquidityAvailable = liquidityAvailable - _loanAmount;\n        \n         // transfer funds to the caller\n        (bool success, ) = msg.sender.call{ value:_loanAmount }(\"\");\n\n        require(success, \"Error: Transfer failed.\");\n\n        uint loanId = addLoan(_loanAmount, _loanDuration, _nftAddress,_nftTokenId);\n        \n        emit LogLoanCreation(loanId,loans[loanId].borrower, loans[loanId].loanAmount, loans[loanId].interest, loans[loanId].fullAmount,\n        loans[loanId].monthlyDeposit, loans[loanId].interestAmountPerMonth, loans[loanId].nftInfo.contractAddress, loans[loanId].nftInfo.tokenId);\n\n        emit LogLiquidityAvailable(liquidityAvailable);\n        \n        return loanId;\n    }\n\n    function addLoan( uint _loanAmount, uint _loanDuration, address _nftAddress, uint _nftTokenId) internal returns (uint)\n    {\n        uint loanId = loans.length;\n\n        uint interestRate = borrowingInterestRates[_loanDuration];\n\n        uint interestAmount = calculateTotalInterestOwedByBorrower(_loanAmount, interestRate);\n\n        uint interestPerMonth = interestAmount/ (_loanDuration * 12);\n\n        uint fullAmount = _loanAmount + interestAmount;\n\n        uint monthlyDeposit = calculateMonthlyLoanDeposit(fullAmount, _loanDuration * 12);\n\n            loans.push(\n                Loan(\n                    loanId, \n                    _loanAmount,\n                    fullAmount,\n                    fullAmount,  // initially remaining amount equals fullAmount\n                    interestPerMonth,\n                    interestRate, \n                    msg.sender,\n                    LoanStatus.ACTIVE,\n                    block.timestamp,\n                    _loanDuration,\n                    Nft(_nftAddress, _nftTokenId),\n                    monthlyDeposit\n                ));\n\n            return loanId;\n    }\n\n    // method for borrowers to pay entire amount\n    function payCompleteLoan(uint _loanId) external payable {\n\n        require(msg.sender == loans[_loanId].borrower, \"You must be the assigned borrower for this loan\");\n\n        require(msg.value == (loans[_loanId].remainingAmount), \"You must pay the full loan amount including interest\");\n\n        require(loans[_loanId].status == LoanStatus.ACTIVE, \"Loan status must be ACTIVE\");\n\n        (bool success, ) = payable(address(this)).call{value: msg.value}(\"\");\n        require(success, \"Error: Transfer failed.\");\n\n        IERC721(loans[_loanId].nftInfo.contractAddress).transferFrom(address(this), msg.sender, loans[_loanId].nftInfo.tokenId);\n    \n        loans[_loanId].status = LoanStatus.REPAID;\n        loans[_loanId].remainingAmount = 0;\n\n        liquidityAvailable = liquidityAvailable + loans[_loanId].loanAmount; // add back just principle amount not the interest earned on the loan \n     \n        emit LogLoanPaid(msg.sender, _loanId, msg.value, loans[_loanId].remainingAmount);\n\n        emit LogLiquidityAvailable(liquidityAvailable);\n    }\n\n    //method for borrowers to to pay monthly deposit\n    function payLoanMonthlyDeposit(uint _loanId) external payable \n    {\n        require(loans[_loanId].status == LoanStatus.ACTIVE, \"Loan status must be Active\");\n\n        require(msg.value >= loans[_loanId].monthlyDeposit, \"You must deposit amount atleast the monthly deposit amount \");\n\n        require(msg.value <= loans[_loanId].fullAmount, \"Your deposit amount exceeds your loan amount\");\n\n        require(msg.sender == loans[_loanId].borrower, \"You must be the assigned borrower for this loan\");\n        \n        (bool success, ) = payable(address(this)).call{value: msg.value}(\"\");\n\n        require(success, \"Error: Transfer failed.\");\n\n        loans[_loanId].remainingAmount = loans[_loanId].remainingAmount - msg.value;\n\n        emit LogLoanDeposit(_loanId, msg.sender, msg.value, loans[_loanId].remainingAmount);\n\n        if(loans[_loanId].remainingAmount == 0)\n        {\n            loans[_loanId].status = LoanStatus.REPAID;\n\n            emit LogLoanPaid(msg.sender, _loanId, msg.value, loans[_loanId].remainingAmount);\n        }\n\n        liquidityAvailable = liquidityAvailable + (msg.value - loans[_loanId].interestAmountPerMonth); // update liquidity pool back subtracting the interest per month;\n\n        emit LogLiquidityAvailable(liquidityAvailable);\n    }\n\n     // to do function to calculate full amount\n    function calculateInterestEarnedPerDay (uint _totalInterestAmount, uint  _lendingDurationInYears) internal pure returns (uint) {\n\n        return ((_totalInterestAmount) /(365 * _lendingDurationInYears)) ;\n    }\n\n    // Lender methods\n    function createLender(uint _lendingDurationInYears) external payable returns (uint)\n    {\n        require(msg.value >0, \"Please enter a valid amount to lend\");\n\n        require(keccak256(abi.encodePacked(getAccountType(msg.sender))) != keccak256(abi.encodePacked(\"borrower\")), \"Sorry, you can either be an active loaner or a lender at a given time.\");\n       \n        uint lenderId = lenders.length;\n\n        uint rateOfReturn =   lendingReturnRates[_lendingDurationInYears];\n\n        uint interestAmount = (msg.value * rateOfReturn)/100;\n\n        uint interestEarnedPerDay = calculateInterestEarnedPerDay(interestAmount, _lendingDurationInYears);\n\n        (bool success, ) = payable(address(this)).call{value: msg.value}(\"\");\n\n        uint lendingDurationInSecs = _lendingDurationInYears * 365 * 24 * 60 * 60;\n\n        require(success, \"Error: Transfer failed.\");\n\n        lenders.push(\n            Lend(\n            lenderId,\n            msg.sender,\n            msg.value,\n            rateOfReturn,\n            interestEarnedPerDay,\n            block.timestamp,\n            lendingDurationInSecs,\n            LenderStatus.ACTIVE,  \n            block.timestamp \n            )\n        );\n\n        liquidityAvailable = liquidityAvailable + (msg.value - interestAmount); \n\n        emit LogLenderCreation(lenderId, msg.sender, msg.value, lenders[lenderId].rateOfReturn, lenders[lenderId].interestEarnedPerDay, lenders[lenderId].durationInSecs, lenders[lenderId].startTimeInSecs);\n\n        emit LogLiquidityAvailable(liquidityAvailable);\n\n        return lenderId;\n    }\n\n    //method  for redeeming interest for lenderers\n    function redeemLendersInterest(uint _lenderId) external payable nonReentrant {\n\n        require(msg.sender == lenders[_lenderId].lender, \"You must be the assigned lender\");\n\n        require((lenders[_lenderId].durationInSecs + lenders[_lenderId].startTimeInSecs) >= block.timestamp, \"This lending fund has matured, please request to recieve the funds back\");\n\n        uint noOfInterestDayAccumulated = (block.timestamp - lenders[_lenderId].latestTimeOfInterestRedeemedInSecs)/ (24 * 60 * 60);\n\n        require(noOfInterestDayAccumulated >= 1, \"interest is earned in 24 hours, please check back later\");\n\n        uint interestEarned = lenders[_lenderId].interestEarnedPerDay * noOfInterestDayAccumulated;\n\n        // update latest date of interest redeemed \n\n        lenders[_lenderId].latestTimeOfInterestRedeemedInSecs = lenders[_lenderId].latestTimeOfInterestRedeemedInSecs + ( noOfInterestDayAccumulated * 24 * 60 * 60); // add a day\n\n        (bool success, ) = msg.sender.call{value: interestEarned}(\"\");\n\n        require(success, \"Error: Transfer failed.\");\n\n        emit LogLenderInterestRedemption( _lenderId, lenders[_lenderId].lender, interestEarned,  lenders[_lenderId].latestTimeOfInterestRedeemedInSecs); \n\n        emit LogLiquidityAvailable(liquidityAvailable);\n    }\n\n    // method to transfer back locked amount for lenders after the duration is complete\n    function retrieveLendersFund(uint _lenderId) external payable nonReentrant{\n\n        require(msg.sender == lenders[_lenderId].lender, \"You must be the assigned lender\");\n\n        require(lenders[_lenderId].status == LenderStatus.ACTIVE, \"lending fund is not active\" );\n\n        require((lenders[_lenderId].durationInSecs + lenders[_lenderId].startTimeInSecs) <= block.timestamp, \"lending fund is not matured yet\" );\n\n        uint interestNotRedeemed = (lenders[_lenderId].interestEarnedPerDay * ((lenders[_lenderId].durationInSecs - (lenders[_lenderId].latestTimeOfInterestRedeemedInSecs - lenders[_lenderId].startTimeInSecs ))/ (24 * 60 * 60)));\n\n        lenders[_lenderId].status = LenderStatus.MATURED;\n        \n        liquidityAvailable = liquidityAvailable - lenders[_lenderId].lendingAmount; //update liquidity available \n\n        uint totalAmountToRefund = interestNotRedeemed + lenders[_lenderId].lendingAmount;\n\n        (bool success, ) = msg.sender.call{value: totalAmountToRefund}(\"\");\n\n        require(success, \"Error: Transfer failed.\"); \n\n        emit LogLiquidityAvailable(liquidityAvailable);\n\n        emit LogLenderMatured(_lenderId, lenders[_lenderId].lender, lenders[_lenderId].lendingAmount, interestNotRedeemed);\n    }\n\n}",
  "sourcePath": "/Users/muskansubnani/Documents/repos/lending-borrowing-dapp/lending-borrowing-dapp/contracts/LendBorrowContract.sol",
  "compiler": {
    "name": "solc",
    "version": "0.8.16+commit.07a7930e.Emscripten.clang"
  },
  "schemaVersion": "3.4.10",
  "updatedAt": "2022-11-14T17:36:34.243Z",
  "networkType": "ethereum",
  "devdoc": {
    "kind": "dev",
    "methods": {
      "owner()": {
        "details": "Returns the address of the current owner."
      },
      "renounceOwnership()": {
        "details": "Leaves the contract without owner. It will not be possible to call `onlyOwner` functions anymore. Can only be called by the current owner. NOTE: Renouncing ownership will leave the contract without an owner, thereby removing any functionality that is only available to the owner."
      },
      "transferOwnership(address)": {
        "details": "Transfers ownership of the contract to a new account (`newOwner`). Can only be called by the current owner."
      }
    },
    "version": 1
  },
  "userdoc": {
    "kind": "user",
    "methods": {},
    "version": 1
  }
}